:100000000C9460000C9488000C9488000C94880078
:100010000C9488000C9488000C9488000C94880040
:100020000C9488000C9488000C9488000C94AF0AFF
:100030000C9488000C9488000C9488000C94880020
:100040000C945D020C9488000C94E7060C942A072B
:100050000C9488000C9488000C9488000C94880000
:100060000C9482090C948800000000070002010033
:100070000003040600000000000000000102040864
:100080001020408001020408102001020408102002
:10009000040404040404040402020202020203032E
:1000A0000303030300000000250028002B000000CC
:1000B0000000240027002A00F401E60729091002A5
:1000C00011241FBECFEFD8E0DEBFCDBF11E0A0E00E
:1000D000B1E0E8EEF0E202C005900D92A635B1075E
:1000E000D9F723E0A6E5B1E001C01D92A231B20725
:1000F000E1F710E0CEEBD0E004C02297FE010E94B1
:10010000BD0DC83BD107C9F70E9448060C94671083
:100110000C940000DC01ED91FC910190F081E02D48
:100120000994EF92FF920F931F93CF93DF93CDB774
:10013000DEB7EDB6FEB640916801509169014F5FA0
:100140005F4F80916201909163010196841795073A
:100150000CF040C08DB79EB7841B950B0FB6F8947A
:100160009EBF0FBE8DBF0DB71EB70F5F1F4F20E0A4
:1001700030E0B80184E691E00E94F00462E171E0B1
:100180008BE791E00E940706E0916201F091630124
:10019000E00FF11F60818BE791E00E943606E0914D
:1001A0006201F0916301E00FF11F608170E085E270
:1001B00092E00E948A008091620190916301019611
:1001C00090936301809362010FB6F894FEBE0FBE58
:1001D000EDBE0AC06AE070E085E292E00E948A000B
:1001E00010926301109262010FB6F894FEBE0FBE2A
:1001F000EDBEDF91CF911F910F91FF90EF90089589
:1002000068EE73E080E090E00C94CA02EF92FF92F7
:100210000F931F93CF93DF93CDB7DEB72E970FB613
:10022000F894DEBF0FBECDBF8C016CE20E94340596
:100230007C019C0140E050E0B801CE0108960E948C
:100240003805A7014F5F5F4FB801CE0101960E94AC
:100250007D05CE0101960E9489058B01CE01019694
:100260000E94C30360E271E0CE0108960E94C004C0
:10027000882319F10115110549F46DE270E08FE54D
:1002800091E00E943E0C6DE270E014C00130110557
:1002900049F467E870E08FE591E00E943E0C67E862
:1002A00070E008C06AE570E08FE591E00E943E0CC6
:1002B0006AE570E08CE591E022C065E271E0CE0174
:1002C00008960E94C0048823E1F00115110541F44D
:1002D00089E591E00E94C00CBC016B5F7F4F0DC0AF
:1002E0000130110541F489E591E00E94C00CBC0188
:1002F0006550710902C064EB70E089E591E00E94ED
:100300003E0CCE0108960E94C3032E960FB6F894B9
:10031000DEBF0FBECDBFDF91CF911F910F91FF9038
:10032000EF90089580EA8093B80040E855E260E0DD
:1003300070E08BE791E00E94650760E585E292E05E
:100340000E940C0968E172E085E292E00E941F09B8
:1003500061E970E085E292E00E9424096091100159
:10036000709111018FE591E00E94050C60910E01E2
:1003700070910F018CE591E00E94050C60910C01D9
:1003800070910D0189E591E00E94050C60910A01D0
:1003900070910B0186E591E00E94050C6AE570E022
:1003A0008FE591E00E943E0C6AE570E08CE591E0FB
:1003B0000E943E0C64EB70E089E591E00E943E0CE7
:1003C00067E870E086E591E00E943E0C61E087E01E
:1003D0000E94540361E087E00E948D0364EF71E0A6
:1003E00080E090E00C94CA0264E371E08BE691E057
:1003F0000E94310464E371E084E691E00E943104DC
:100400008FE591E00E946B0B8CE591E00E946B0BF5
:1004100089E591E00E946B0B86E591E00C946B0BF3
:1004200084E691E00E94C3038BE691E00C94C30341
:10043000CF93DF93CDB7DEB727970FB6F894DEBF23
:100440000FBECDBF85E292E00E9444088A3031F0B1
:10045000682F8BE691E00E94AD0426C069E271E04E
:100460008BE791E00E9407066BE671E08BE791E075
:100470000E9424066BE671E0CE0101960E945F04A3
:10048000CE0101960E940601CE0101960E94C3038F
:100490006BE671E084E691E00E94480464E371E059
:1004A0008BE691E00E94690427960FB6F894DEBFB0
:1004B0000FBECDBFDF91CF9108951F920F920FB65F
:1004C0000F9211242F933F938F939F93AF93BF93DA
:1004D0008091730190917401A0917501B0917601A2
:1004E0003091720123E0230F2D3720F40196A11DD6
:1004F000B11D05C026E8230F0296A11DB11D209352
:1005000072018093730190937401A0937501B0936D
:1005100076018091770190917801A0917901B09155
:100520007A010196A11DB11D809377019093780106
:10053000A0937901B0937A01BF91AF919F918F9170
:100540003F912F910F900FBE0F901F9018953FB7BE
:10055000F8948091770190917801A0917901B09100
:100560007A0126B5A89B05C02F3F19F00196A11D61
:10057000B11D3FBF6627782F892F9A2F620F711DFB
:10058000811D911D42E0660F771F881F991F4A95B4
:10059000D1F70895CF92DF92EF92FF92CF93DF933E
:1005A0006B017C010E94A702EB01C114D104E1049C
:1005B000F10479F00E94A7026C1B7D0B683E73402A
:1005C000A0F381E0C81AD108E108F108C851DC4F56
:1005D000ECCFDF91CF91FF90EF90DF90CF90089517
:1005E000789484B5826084BD84B5816084BD85B50E
:1005F000826085BD85B5816085BDEEE6F0E08081D5
:1006000081608083E1E8F0E01082808182608083F5
:10061000808181608083E0E8F0E080818160808378
:10062000E1EBF0E0808184608083E0EBF0E08081AA
:1006300081608083EAE7F0E080818460808380814C
:1006400082608083808181608083808180688083F4
:100650001092C1000895833081F028F4813099F020
:100660008230A1F008958630A9F08730B9F0843047
:10067000D1F4809180008F7D03C0809180008F77BE
:1006800080938000089584B58F7702C084B58F7DF4
:1006900084BD08958091B0008F7703C08091B00031
:1006A0008F7D8093B0000895CF93DF9390E0FC019D
:1006B000E458FF4F2491FC01E057FF4F84918823B9
:1006C00049F190E0880F991FFC01E255FF4FA59179
:1006D000B4918C559F4FFC01C591D4919FB7611186
:1006E00008C0F8948C91209582238C938881822372
:1006F0000AC0623051F4F8948C91322F30958323E4
:100700008C938881822B888304C0F8948C91822BEF
:100710008C939FBFDF91CF9108950F931F93CF9339
:10072000DF931F92CDB7DEB7282F30E0F901E859EB
:10073000FF4F8491F901E458FF4F1491F901E057FC
:10074000FF4F04910023C9F0882321F069830E94A0
:100750002B036981E02FF0E0EE0FFF1FEC55FF4FF8
:10076000A591B4919FB7F8948C91611103C0109535
:10077000812301C0812B8C939FBF0F90DF91CF917C
:100780001F910F910895FC01808191810C94680E56
:10079000CF93DF93EC0188819981009711F00E943B
:1007A000680E198218821D821C821B821A82DF91B8
:1007B000CF9108950F931F93CF93DF93EC018B019B
:1007C0006F5F7F4F888199810E94F70E009731F00B
:1007D000998388831B830A8381E001C080E0DF91D5
:1007E000CF911F910F910895CF93DF93EC018881F2
:1007F0009981892B29F08A819B818617970760F45C
:10080000CE010E94DA03882341F08C819D81892BDF
:1008100019F4E881F981108281E0DF91CF91089588
:10082000EF92FF920F931F93CF93DF93EC017B0125
:100830008A01BA010E94F403811104C0CE010E9412
:10084000C80307C01D830C83B701888199810E946A
:100850000510CE01DF91CF911F910F91FF90EF9086
:100860000895FC0111821082138212821582148273
:1008700016826115710559F0FB0101900020E9F71E
:10088000AF0141505109461B570B0C9410040895B9
:10089000CF93DF93EC01FB018617970761F060812E
:1008A00071816115710529F0448155810E94100400
:1008B00002C00E94C803CE01DF91CF910895FC01D0
:1008C00011821082138212821582148216820C9475
:1008D0004804CF93DF93EC016115710561F0FB01D2
:1008E00001900020E9F7AF0141505109461B570B19
:1008F0000E94100402C00E94C803CE01DF91CF9174
:100900000895EF92FF920F931F93CF93DF93EC0123
:100910007B010C811D816115710511F480E016C009
:100920004115510591F0040F151FB8010E94F40301
:100930008823A1F3288139818C819D81B701820FA1
:10094000931F0E9405101D830C8381E0DF91CF91DE
:100950001F910F91FF90EF900895CF93DF9300D0F8
:10096000CDB7DEB769831A8241E050E0BE016F5F08
:100970007F4F0E9481040F900F90DF91CF910895D7
:10098000FC0124813581232B31F421E061157105AF
:10099000A1F0FB0108C0FC01808191816115710506
:1009A00031F421E0FC018081882339F005C00E94E8
:1009B000FC0F21E0892B09F020E0822F0895FC0133
:1009C000248135816217730748F4808191810097F3
:1009D00029F0FC01E60FF71F8081089580E008955B
:1009E0000F931F93CF93DF93EB0141155105E9F06E
:1009F0002097D9F0FC016481758126173707A0F490
:100A0000621B730B8A01015011096017710708F40A
:100A10008B01FC0160817181620F731FA801CE01FF
:100A20000E940C10C00FD11F1882DF91CF911F912F
:100A30000F910895CF93DF93FC018481958148172E
:100A4000590768F4C081D18170E0CE01840F951FF1
:100A50000E94F10F009719F08C1B9D0B02C08FEFC5
:100A60009FEFDF91CF91089540E050E00C941A057C
:100A7000BF92CF92DF92EF92FF920F931F93CF938B
:100A8000DF936C017B01EA0189012417350720F40B
:100A90008D2FE901042F182F64E371E0C6010E9435
:100AA0003104D70114968D919C9115978C179D0751
:100AB000C8F08017910708F48C01D701ED91FC91E3
:100AC0001197E00FF11FB08010826D917C916C0F37
:100AD0007D1FC6010E946904D701ED91FC91E00FD2
:100AE000F11FB082C601DF91CF911F910F91FF904E
:100AF000EF90DF90CF90BF900895CF93DF93EC01FC
:100B0000FB01248135810E943805CE01DF91CF9110
:100B10000895FC0180819181009711F00C94C10F20
:100B200060E070E0CB010895CF92DF92EF92FF92E8
:100B30000F931F93CF93DF936C017A01EB01E60EC5
:100B4000F71E00E010E0CE15DF0561F06991D601D7
:100B5000ED91FC910190F081E02DC6010995080FFF
:100B6000191FF1CFC801DF91CF911F910F91FF9015
:100B7000EF90DF90CF9008956115710581F0DB0152
:100B80000D900020E9F7AD0141505109461B570B6C
:100B9000DC01ED91FC910280F381E02D099480E06D
:100BA00090E00895AF92BF92CF92DF92EF92FF92C2
:100BB0000F931F93CF93DF937C016B01C0E0D0E0D4
:100BC00000E010E0D60114968D919C911597C817FE
:100BD000D90788F4D701ED91FC91A080B180BE01C6
:100BE000C6010E94DF04682FC701F5010995080FAF
:100BF000191F2196E7CFC801DF91CF911F910F9167
:100C0000FF90EF90DF90CF90BF90AF9008950C943D
:100C1000BC05DC01ED91FC910190F081E02D09947F
:100C20000F931F93CF93DF93EC016DE00E940906B1
:100C30008C016AE0CE010E940906800F911FDF91AE
:100C4000CF911F910F9108950F931F93CF93DF932F
:100C5000EC010E94D2058C01CE010E941006800F8B
:100C6000911FDF91CF911F910F9108950F931F93C3
:100C7000CF93DF93EC010E9409068C01CE010E9404
:100C80001006800F911FDF91CF911F910F91089552
:100C90000E94F0020E949201C1E2D7E00E9400018E
:100CA0002097E1F30E942107F9CFFC0124853585C7
:100CB000F901E05CFF4F8081918132962081318182
:100CC000821B930B8F7399270895FC01848595856A
:100CD000FC01E05CFF4F40815181329620813181DF
:100CE0004217530741F00190F081E02DE80FF91F02
:100CF000808190E008958FEF9FEF0895FC01848537
:100D00009585FC01E05CFF4F408151813296208146
:100D100031814217530779F0A081B181A80FB91F23
:100D20008C91208131812F5F3F4F2F733327318387
:100D3000208390E008958FEF9FEF0895FC0181A13B
:100D4000882329F0A489B5898C9186FFFBCF11A255
:100D50000895CF93DF93FC0126853785D901A05CE8
:100D6000BF4F8D919C91119701968F739927E9013F
:100D7000CE5BDF4F4881598184179507D9F30D90D9
:100D8000BC91A02DA20FB31F6C93A685B785A05C64
:100D9000BF4F11969C938E93A689B7892C9181E0C1
:100DA00090E0078C02C0880F991F0A94E2F7282B65
:100DB0002C9381E081A30488F589E02D80818064F3
:100DC000808381E090E0DF91CF91089508951F9294
:100DD0000F920FB60F9211242F933F934F938F933F
:100DE0009F93EF93FF938091C00082FD1CC04091C0
:100DF000C600809121029091220201968F7399275B
:100E000020912302309124028217930771F0E09120
:100E10002102F0912202EF51FE4F40839093220273
:100E20008093210202C08091C600FF91EF919F91B3
:100E30008F914F913F912F910F900FBE0F901F9068
:100E400018958BE791E00E945506892B11F00C94C0
:100E5000E60608951F920F920FB60F9211242F935A
:100E60003F938F939F93EF93FF932091DD013091F8
:100E7000DE018091DF019091E0012817390731F4FC
:100E80008091C1008F7D8093C10014C0E091DF018B
:100E9000F091E001E356FE4F20818091DF019091B7
:100EA000E00101968F7399279093E0018093DF0111
:100EB0002093C600FF91EF919F918F913F912F91C9
:100EC0000F900FBE0F901F901895CF92DF92EF9268
:100ED000FF92CF93DF93EC016A017B01411581EE14
:100EE000580761057105F9F0EC89FD8981E090E012
:100EF00008A002C0880F991F0A94E2F7808360E07F
:100F000079E08DE390E0A70196010E946F0D2150DA
:100F1000310941095109569547953795279521156E
:100F200080E1380798F0EC89FD89108260E874E868
:100F30008EE190E0A70196010E946F0D21503109CA
:100F4000410951095695479537952795E889F989BB
:100F50003083EA89FB89208319A2EE89FF894081C9
:100F600081E090E09C010C8C02C0220F331F0A9498
:100F7000E2F7422B4083EE89FF8940819C010D8C72
:100F800002C0220F331F0A94E2F7422B4083EE89FE
:100F9000FF8940819C010E8C02C0220F331F0A94EE
:100FA000E2F7422B4083EE89FF8920810F8C02C03B
:100FB000880F991F0A94E2F7809582238083DF913E
:100FC000CF91FF90EF90DF90CF90089510927E0127
:100FD00010927D0188EE93E0A0E0B0E080937F0165
:100FE00090938001A0938101B093820189E391E005
:100FF00090937C0180937B0181EE91E09093880136
:10100000809387018DE991E090938A018093890113
:1010100085EC90E090938C0180938B0184EC90E0C0
:1010200090938E0180938D0180EC90E090939001DD
:1010300080938F0181EC90E09093920180939101D5
:1010400082EC90E0909394018093930186EC90E081
:10105000909396018093950184E08093970183E0BB
:101060008093980187E08093990185E080939A01AD
:1010700081E080939B0108958091580290E0209137
:101080005902821B910908952091590280915802BA
:10109000281750F4E22FF0E0E65AFD4F808190E0EF
:1010A0002F5F2093590208958FEF9FEF0895E091ED
:1010B000590280915802E81730F4F0E0E65AFD4FEB
:1010C000808190E008958FEF9FEF08950895E0915B
:1010D0003102F09132023097E1F0309159022091C3
:1010E00058023217B0F040E0242F30E026173707BF
:1010F00054F4DC01A20FB31F5C91D901A65ABD4F75
:101100005C934F5FF1CF1092590260935802CB016C
:1011100009940895E0913302F0913402309729F058
:10112000109237021092360209940895CF92DF92FE
:10113000EF92FF920F931F93CF93DF937C01CB012C
:101140008A0120913502222389F0EB016B01C40E44
:10115000D51ECC15DD0569F06991D701ED91FC91A3
:101160000190F081E02DC7010995F3CF642F0E9413
:101170004F09C801DF91CF911F910F91FF90EF9020
:10118000DF90CF900895CF93DF931F92CDB7DEB756
:101190006983209135022223D1F02091360220323A
:1011A00040F021E030E0FC013383228380E090E0D6
:1011B00015C080913702E82FF0E0E85CFD4F99817F
:1011C00090838F5F809337028093360205C061E081
:1011D000CE0101960E944F0981E090E00F90DF91CF
:1011E000CF910895FC011382128248EE53E060E033
:1011F00070E0448355836683778389E491E091832B
:10120000808308951092590210925802109237026A
:10121000109236020C942D09CF93DF93EC01862FA8
:101220000E944B098AE898E00E946D0987E698E0E1
:101230000E946809CE01DF91CF910C94020970934E
:101240003202609331020895709334026093330246
:10125000089585E292E00C94F2081092E70281E092
:101260008093E5021092E40261E082E10E948D0326
:1012700061E083E10E948D03E9EBF0E080818E7FE5
:10128000808380818D7F808388E48093B80085E4AB
:101290008093BC000895880F8093BA00089561324E
:1012A00098F42091E702243089F460939C02FC01B9
:1012B0008EE992E0DC012A2F281B261718F42191D1
:1012C0002D93F9CF80E0089581E0089582E008959C
:1012D0009093E1028093E00208959093E30280935B
:1012E000E202089585ED8093BC008091BC0084FDEE
:1012F000FCCF1092E702089585EC8093BC00109219
:10130000E70208951F920F920FB60F9211242F93A8
:101310003F934F935F936F937F938F939F93AF937D
:10132000BF93EF93FF938091B900887F803609F4D3
:101330009CC068F5883209F45BC090F4803109F4F0
:1013400054C038F4882309F4F5C0883009F44DC03E
:10135000F5C0883109F44CC0803209F45DC0EEC09C
:10136000803409F468C048F4803309F455C08833E8
:1013700009F0E4C080937A02A8C0803509F44FC018
:10138000883509F45DC0883409F0D8C0D5C08839E3
:1013900009F4C6C0A8F4883709F467C038F4883661
:1013A00009F463C0803709F460C0C8C0883809F404
:1013B000B7C0803909F45FC0803809F0BFC05BC096
:1013C000803B09F485C038F4803A09F466C0883A55
:1013D00009F47EC0B3C0803C09F4A6C0883C09F47F
:1013E000A3C0883B09F489C0A9C08091E60210C05F
:1013F0009091BF028091BE02981770F5E091BF02F4
:1014000081E08E0F8093BF02F0E0E054FD4F8081B9
:101410008093BB0085EC85C080937A028DC0E091FB
:10142000BF0281E08E0F8093BF028091BB00F0E08D
:10143000E054FD4F80839091BF028091BE026DC049
:10144000E091BF0281E08E0F8093BF028091BB00CC
:10145000F0E0E054FD4F80838091E50281116CC083
:1014600081E08093E40284EA60C083E08093E70235
:1014700010927B02CFCF80917B02803208F050C067
:10148000E0917B0281E08E0F80937B028091BB0014
:10149000F0E0E458FD4F8083BDCF80917B02803225
:1014A00030F4E0917B02F0E0E458FD4F10820E949E
:1014B000720960917B0270E0E091E002F091E1023C
:1014C0008CE792E0099510927B020E947C0936C05D
:1014D00084E08093E70210929D0210929C02E091BA
:1014E000E202F091E302099580919C02811105C00E
:1014F00081E080939C0210929E02E0919D0281E027
:101500008E0F80939D02F0E0E256FD4F8081809324
:10151000BB0090919D0280919C02981708F47ACFAD
:1015200085E88093BC000AC085EC8093BC001092D3
:10153000E70204C010927A020E947209FF91EF91B3
:10154000BF91AF919F918F917F916F915F914F91DB
:101550003F912F910F900FBE0F901F9018951F92E3
:101560000F920FB60F9211242F933F934F935F93D7
:101570006F937F938F939F93AF93BF93EF93FF935B
:101580008091E90287FF05C01092850010928400C7
:101590001AC02091E902332727FD30958091E80297
:1015A00090E0281739077CF48091E902992787FD9C
:1015B0009095FC01EE0FFF1FE80FF91FE651FD4F5C
:1015C000808186FD15C08091E9028F5F8093E902DA
:1015D0002091E902332727FD30958091E80290E0C1
:1015E00028173907BCF48091E9028C305CF112C0F5
:1015F0008091E902992787FD9095FC01EE0FFF1F6E
:10160000E80FF91FE651FD4F808160E08F730E9463
:101610008D03D9CF80918400909185000496803409
:101620009C4918F480E49CE905C080918400909165
:101630008500049690938900809388008FEF8093B3
:10164000E90238C080918400909185002091E902E0
:10165000332727FD3095F901EE0FFF1FE20FF31F2F
:10166000E651FD4F21813281820F931F90938900B3
:10167000809388008091E902992787FD9095FC016D
:10168000EE0FFF1FE80FF91FE651FD4F808186FF27
:1016900011C08091E902992787FD9095FC01EE0F1A
:1016A000FF1FE80FF91FE651FD4F808161E08F7346
:1016B0000E948D03FF91EF91BF91AF919F918F9108
:1016C0007F916F915F914F913F912F910F900FBE3E
:1016D0000F901F9018952091E8022C30A0F431E073
:1016E000320F3093E802FC012083822F90E0FC014E
:1016F000EE0FFF1FE80FF91FE651FD4F88EB9BE04F
:101700009283818308952FEFFC0120830895DF9257
:10171000EF92FF920F931F93CF93DF93EC01D62E9E
:101720007A01890188818C3008F066C061E08D2DD6
:101730000E9454038881A82FB0E0FD01EE0FFF1F27
:10174000EA0FFB1FE651FD4F2D2D2F739081907CEA
:10175000922B908360E272E06E197F0977FF02C0DE
:101760006D5F7F4F7595679575956795698340E6C1
:1017700059E0401B510B57FF02C04D5F5F4F55951D
:101780004795559547954A832CE0622F0E94630D3B
:10179000289FB001112420E030E0A901460F571F17
:1017A000FA01EE0FFF1FE40FF51FE651FD4F908188
:1017B00096FD16C02F5F3F4F2C30310571F7811118
:1017C0000FC01092800082E080938100109285000B
:1017D00010928400B19A80916F00826080936F00B4
:1017E000888190E0FC01EE0FFF1FE80FF91FE65122
:1017F000FD4F8081806480838881DF91CF911F912C
:101800000F91FF90EF90DF90089520E639E040E2DD
:1018100052E00C94870BFC0180818C3070F5918133
:1018200028E830E0291B310997FD3395220F331F3B
:10183000220F331F621773077CF0928128E532E094
:10184000291B310997FD3395220F331F220F331FB8
:10185000621773070CF49B014FB7F89490E0FC01FA
:10186000EE0FFF1FE80FF91FE651FD4F225031091F
:10187000220F331F328321834FBF08954F925F920F
:101880006F927F92AF92BF92CF92DF92EF92FF92D0
:101890000F931F93CF93DF93EC01603282E07807C0
:1018A0000CF040C077FD06C0653B71052CF064EB81
:1018B00070E002C060E070E0898128E830E0281B19
:1018C000310987FD3395220F331F220F331F590132
:1018D000CC24B7FCC094DC2C882777FD8095982F0A
:1018E0002A8148E552E0421B510927FD5395440FD8
:1018F000551F440F551F2A01662457FC6094762C0F
:101900007F926F925F924F9214EBE12EF12C00E0E8
:1019100010E020E030E0A9010E940C0D0F900F9024
:101920000F900F90CE01DF91CF911F910F91FF90FB
:10193000EF90DF90CF90BF90AF907F906F905F90CF
:101940004F900C940B0CFC0180818F3FB1F090E024
:10195000FC01EE0FFF1FE80FF91FE651FD4F8181DB
:10196000928143E0880F991F4A95E1F754E09695DC
:1019700087955A95E1F70296089580E090E00895E2
:10198000AF92BF92CF92DF92EF92FF920F931F938D
:10199000CF93DF93EC010E94A30C2A8148E552E02B
:1019A000421B510927FD5395440F551F440F551FE6
:1019B0007A010027F7FC0095102F498128E830E0D4
:1019C000241B310947FD3395220F331F220F331F8C
:1019D000442737FD4095542F0196BC01882777FD99
:1019E0008095982F1F921F921F92E4EBEF93A12CEA
:1019F000B12C65010E940C0D0F900F900F900F906D
:101A0000CB01DF91CF911F910F91FF90EF90DF906D
:101A1000CF90BF90AF9008954F925F926F927F9258
:101A2000AF92BF92CF92DF92EF92FF920F931F93EC
:101A3000CF93DF93CDB7DEB729013A01621B730B59
:101A4000840B950B29893A894B895C892A193B09B2
:101A50004C095D09298B3A8B4B8B5C8B9B01AC014C
:101A600069897A898B899C890E94530DE418F5084D
:101A700006091709A80197010E94910D2A0D3B1D27
:101A80004C1D5D1DCA01B901DF91CF911F910F91CE
:101A9000FF90EF90DF90CF90BF90AF907F906F90CE
:101AA0005F904F900895DB018F939F930E94B00D3C
:101AB000BF91AF91A29F800D911DA39F900DB29FEA
:101AC000900D11240895991B79E004C0991F961771
:101AD00008F0961B881F7A95C9F780950895A1E2B2
:101AE0001A2EAA1BBB1BFD010DC0AA1FBB1FEE1F98
:101AF000FF1FA217B307E407F50720F0A21BB30BE3
:101B0000E40BF50B661F771F881F991F1A9469F75E
:101B100060957095809590959B01AC01BD01CF01BA
:101B20000895052E97FB1EF400940E94A80D57FD02
:101B300007D00E946F0D07FC03D04EF40C94A80D43
:101B400050954095309521953F4F4F4F5F4F0895E9
:101B500090958095709561957F4F8F4F9F4F089519
:101B60000E94C10DA59F900DB49F900DA49F800D64
:101B7000911D11240895EE0FFF1F0590F491E02DA3
:101B80000994A29FB001B39FC001A39F700D811D56
:101B90001124911DB29F700D811D1124911D089576
:101BA000CF93DF938230910510F482E090E0E091D2
:101BB0001003F091110320E030E0A0E0B0E0309796
:101BC00039F14081518148175907B8F04817590732
:101BD00071F482819381109729F013969C938E93D0
:101BE00012972CC0909311038093100327C02115E6
:101BF000310531F04217530718F0A901DB0101C08C
:101C0000EF019A01BD01DF010280F381E02DD7CF02
:101C100021153105F9F0281B390B2430310580F4EA
:101C20008A819B816115710521F0FB019383828379
:101C300004C09093110380931003FE01329644C0B8
:101C4000FE01E20FF31F81939193225031093983F2
:101C500028833AC020910E0330910F03232B41F4C7
:101C6000209102013091030130930F0320930E0362
:101C700020910001309101012115310541F42DB76A
:101C80003EB74091040150910501241B350BE091B2
:101C90000E03F0910F03E217F307A0F42E1B3F0B86
:101CA0002817390778F0AC014E5F5F4F24173507CE
:101CB00048F04E0F5F1F50930F0340930E03819324
:101CC000919302C0E0E0F0E0CF01DF91CF91089561
:101CD000CF93DF93009709F487C0FC0132971382FA
:101CE0001282C0911003D0911103209781F42081BA
:101CF0003181280F391F80910E0390910F038217B5
:101D0000930779F5F0930F03E0930E036DC0DE01A6
:101D100020E030E0AE17BF0750F412964D915C9171
:101D200013979D014115510509F1DA01F3CFB383F2
:101D3000A28340815181840F951F8A179B0771F4FC
:101D40008D919C911197840F951F029691838083AA
:101D500012968D919C91139793838283211531055F
:101D600029F4F0931103E09310033EC0D9011396B8
:101D7000FC93EE9312974D915D91A40FB51FEA1756
:101D8000FB0779F480819181840F951F0296D90118
:101D900011969C938E938281938113969C938E933C
:101DA0001297E0E0F0E08A819B81009719F0FE0134
:101DB000EC01F9CFCE01029628813981820F931F61
:101DC00020910E0330910F032817390769F43097DB
:101DD00029F4109211031092100302C01382128290
:101DE000D0930F03C0930E03DF91CF910895A0E02D
:101DF000B0E0EDEFFEE00C943410EC01CB01209745
:101E000019F40E94D00DB8C0FE01E60FF71F9E0125
:101E100022503109E217F30708F4ACC0D9010D9143
:101E20001C91119706171707B8F00530110508F433
:101E30009FC0A801445051094617570708F498C09D
:101E400002501109061B170B019311936D937C939C
:101E5000CF010E94680E8CC05B01A01AB10A4E012E
:101E6000800E911EA0911003B0911103612C712C72
:101E700060E070E0109709F449C0A815B905C9F5EC
:101E8000ED90FC901197670142E0C40ED11CCA147A
:101E9000DB0478F147018A189B08640142E0C40E14
:101EA000D11C1296BC9012971396AC91B5E0CB164C
:101EB000D10440F0B282A38391828082D9018D93B4
:101EC0009C9309C00E5F1F4F0E0D1F1DF90111835A
:101ED0000083EB2DFA2F6115710531F0DB011396AC
:101EE000FC93EE93129744C0F0931103E093100318
:101EF0003FC06D917C9111976616770608F43B01FF
:101F0000BD0112960D90BC91A02DB4CF60910E032F
:101F100070910F0368157905E9F468167906D0F415
:101F200040910001509101014115510541F44DB717
:101F30005EB76091040170910501461B570BE417D1
:101F4000F507C0F4F0930F03E0930E03F9019183BA
:101F500080830EC00E94D00D7C01009759F0A8012B
:101F6000BE010E94E80FCE010E94680EC70104C0A6
:101F7000CE0102C080E090E0CDB7DEB7EEE00C9479
:101F800050101F93FC0199278827BC01E8941191F8
:101F90001032E9F3193010F01E30C8F31B3251F043
:101FA0001D3249F4689406C00E941B10610F711D18
:101FB000811D911D119110531A30B0F33EF490958C
:101FC0008095709561957F4F8F4F9F4F1F9108951A
:101FD000FB01DC0102C001900D9241505040D8F746
:101FE0000895FC018191861721F08823D9F799275C
:101FF00008953197CF010895FB01DC018D91019087
:1020000080190110D9F3990B0895FB01DC010190AF
:102010000D920020E1F70895FB01DC014150504092
:1020200048F001900D920020C9F701C01D92415067
:102030005040E0F70895592F482F372F262F660F6D
:10204000771F881F991F660F771F881F991F620FC0
:10205000731F841F951F660F771F881F991F089590
:102060002F923F924F925F926F927F928F929F92A8
:10207000AF92BF92CF92DF92EF92FF920F931F9396
:10208000CF93DF93CDB7DEB7CA1BDB0B0FB6F89447
:10209000DEBF0FBECDBF09942A88398848885F8487
:1020A0006E847D848C849B84AA84B984C884DF80F8
:1020B000EE80FD800C811B81AA81B981CE0FD11DDC
:1020C0000FB6F894DEBF0FBECDBFED01089510E04E
:1020D000CEEBD0E004C0FE010E94BD0D2296C03CB4
:0820E000D107C9F7F894FFCF06
:1020E800000012032000010000000B000A00060097
:1020F800050053656E64696E67206368617220002D
:102108006D6F76650070616E004920526563696580
:10211800766564200000000000A906940555067E37
:102128000665069E0600000000C30896083C0844A1
:06213800085708660800CC
:00000001FF
