:100000000C9465000C948D000C948D000C948D0064
:100010000C948D000C948D000C948D000C948D002C
:100020000C948D000C948D000C948D000C94380B66
:100030000C948D000C948D000C948D000C948D000C
:100040000C94BD020C948D000C9470070C94B307B3
:100050000C948D000C948D000C948D000C948D00EC
:100060000C940B0A0C948D000000000700020100A4
:100070000003040600000000000000000102040864
:100080001020408001020408102001020408102002
:10009000040404040404040402020202020203032E
:1000A00003030303000000002300260029000000D2
:1000B0000000250028002B0000000000240027007D
:1000C0002A005A026F08B209760211241FBECFEF30
:1000D000D8E0DEBFCDBF11E0A0E0B1E0EAEFF1E291
:1000E00002C005900D92AE35B107D9F723E0AEE519
:1000F000B1E001C01D92AA31B207E1F710E0C8ECEF
:10010000D0E004C02297FE010E94460EC23CD107F7
:10011000C9F70E94D1060C94F0100C940000DC0189
:10012000ED91FC910190F081E02D0994EF92FF9206
:100130000F931F93CF93DF93CDB7DEB7EDB6FEB627
:1001400040917001509171014F5F5F4F80916A0142
:1001500090916B010196841795070CF040C08DB704
:100160009EB7841B950B0FB6F8949EBF0FBE8DBF34
:100170000DB71EB70F5F1F4F20E030E0B8018CE6CF
:1001800091E00E94790562E171E083E891E00E94CC
:100190009006E0916A01F0916B01E00FF11F608120
:1001A00083E891E00E94BF06E0916A01F0916B0143
:1001B000E00FF11F608170E08DE292E00E948F00FD
:1001C00080916A0190916B01019690936B018093ED
:1001D0006A010FB6F894FEBE0FBEEDBE0AC06AE01B
:1001E00070E08DE292E00E948F0010926B011092FD
:1001F0006A010FB6F894FEBE0FBEEDBEDF91CF913F
:100200001F910F91FF90EF90089561E087E00E94A9
:10021000ED0360E27EE480E090E00E942A0361E06A
:1002200088E00E94ED0360E087E00C94ED03EF921C
:10023000FF920F931F93CF93DF93CDB7DEB72E9727
:100240000FB6F894DEBF0FBECDBF8C016CE20E94EA
:10025000BD057C019C0140E050E0B801CE0108964C
:100260000E94C105A7014F5F5F4FB801CE01019603
:100270000E940606CE0101960E9412068B01CE0155
:1002800001960E944C0460E271E0CE0108960E9443
:1002900049058823D9F10115110549F46DE270E093
:1002A00087E691E00E94C70C6DE270E02CC001303F
:1002B000110549F467E870E087E691E00E94C70CF9
:1002C00067E870E020C00F3F1F4FA9F487E691E078
:1002D0000E94490D8B3591051CF065E271E006C066
:1002E0008A35910509F459C067E271E08CE691E026
:1002F0000E94F20452C06AE570E087E691E00E9435
:10030000C70C6AE570E084E691E045C069E271E0FF
:10031000CE0108960E9449058823D9F001151105E0
:1003200041F481E691E00E94490DBC016B5F7F4F73
:100330000DC00130110541F481E691E00E94490DA4
:10034000BC016550710902C064EB70E081E691E088
:1003500022C06DE271E0CE0108960E944905882313
:10036000E1F00115110541F48EE591E00E94490D7F
:10037000BC016B5F7F4F0DC00130110541F48EE56C
:1003800091E00E94490DBC016550710902C067E807
:1003900070E08EE591E00E94C70CCE0108960E94A5
:1003A0004C042E960FB6F894DEBF0FBECDBFDF9182
:1003B000CF911F910F91FF90EF90089564E670E048
:1003C00080E090E00E942A038CE00E942304892BA5
:1003D00011F00C940501089580EA8093B80040E87C
:1003E00055E260E070E083E891E00E94EE0760E58E
:1003F0008DE292E00E9495096EE772E08DE292E054
:100400000E94A80966E970E08DE292E00E94AD09C1
:10041000609110017091110187E691E00E948E0CAD
:1004200060910E0170910F0184E691E00E948E0CA4
:1004300060910C0170910D0181E691E00E948E0C9B
:1004400060910A0170910B018EE591E00E948E0C83
:100450006AE570E087E691E00E94C70C6AE570E00B
:1004600084E691E00E94C70C64EB70E081E691E0C5
:100470000E94C70C67E870E08EE591E00E94C70C0F
:1004800061E087E00E94B40360E087E00E94ED0332
:1004900061E088E00E94B40360E087E00E94ED0321
:1004A00060E08CE00E94B40364EF71E080E090E0D3
:1004B0000C942A036DE371E083E791E00E94BA0493
:1004C0006DE371E08CE691E00E94BA0487E691E06A
:1004D0000E94F40B84E691E00E94F40B81E691E027
:1004E0000E94F40B8EE591E00C94F40B8CE691E005
:1004F0000E944C0483E791E00C944C04CF93DF936B
:10050000CDB7DEB727970FB6F894DEBF0FBECDBFCD
:100510008DE292E00E94CD088A3031F0682F83E7A7
:1005200091E00E94360520C062E371E083E891E02B
:100530000E94900663E771E083E891E00E94AD06B7
:1005400063E771E0CE0101960E94E804CE010196B6
:100550000E941701CE0101960E944C046DE371E0E8
:1005600083E791E00E94F20427960FB6F894DEBF6D
:100570000FBECDBFDF91CF9108951F920F920FB69E
:100580000F9211242F933F938F939F93AF93BF9319
:1005900080917B0190917C01A0917D01B0917E01C1
:1005A00030917A0123E0230F2D3720F40196A11D0D
:1005B000B11D05C026E8230F0296A11DB11D209391
:1005C0007A0180937B0190937C01A0937D01B0938D
:1005D0007E0180917F0190918001A0918101B09175
:1005E00082010196A11DB11D80937F01909380012E
:1005F000A0938101B0938201BF91AF919F918F91A0
:100600003F912F910F900FBE0F901F9018953FB7FD
:10061000F89480917F0190918001A0918101B09127
:10062000820126B5A89B05C02F3F19F00196A11D98
:10063000B11D3FBF6627782F892F9A2F620F711D3A
:10064000811D911D42E0660F771F881F991F4A95F3
:10065000D1F70895CF92DF92EF92FF92CF93DF937D
:100660006B017C010E940703EB01C114D104E1047A
:10067000F10479F00E9407036C1B7D0B683E734008
:10068000A0F381E0C81AD108E108F108C851DC4F95
:10069000ECCFDF91CF91FF90EF90DF90CF90089556
:1006A000789484B5826084BD84B5816084BD85B54D
:1006B000826085BD85B5816085BDEEE6F0E0808114
:1006C00081608083E1E8F0E0108280818260808335
:1006D000808181608083E0E8F0E0808181608083B8
:1006E000E1EBF0E0808184608083E0EBF0E08081EA
:1006F00081608083EAE7F0E080818460808380818C
:100700008260808380818160808380818068808333
:100710001092C1000895833081F028F4813099F05F
:100720008230A1F008958630A9F08730B9F0843086
:10073000D1F4809180008F7D03C0809180008F77FD
:1007400080938000089584B58F7702C084B58F7D33
:1007500084BD08958091B0008F7703C08091B00070
:100760008F7D8093B0000895CF93DF9390E0FC01DC
:10077000E458FF4F2491FC01E057FF4F84918823F8
:1007800049F190E0880F991FFC01E854FF4FA591B3
:10079000B49182559F4FFC01C591D4919FB76111CF
:1007A00008C0F8948C91209582238C9388818223B1
:1007B0000AC0623051F4F8948C91322F3095832323
:1007C0008C938881822B888304C0F8948C91822B2F
:1007D0008C939FBFDF91CF9108950F931F93CF9379
:1007E000DF931F92CDB7DEB7282F30E0F901E8592B
:1007F000FF4F8491F901E458FF4F1491F901E0573C
:10080000FF4F04910023C9F0882321F069830E94DF
:100810008B036981E02FF0E0EE0FFF1FE255FF4FE1
:10082000A591B4919FB7F8948C91611103C0109574
:10083000812301C0812B8C939FBF0F90DF91CF91BB
:100840001F910F910895CF93DF93282F30E0F90186
:10085000E859FF4F8491F901E458FF4FD491F90111
:10086000E057FF4FC491CC2391F081110E948B037C
:10087000EC2FF0E0EE0FFF1FEC55FF4FA591B49168
:100880002C912D2381E090E021F480E002C080E0F3
:1008900090E0DF91CF910895FC01808191810C94CB
:1008A000F10ECF93DF93EC0188819981009711F0CD
:1008B0000E94F10E198218821D821C821B821A82EC
:1008C000DF91CF9108950F931F93CF93DF93EC01A6
:1008D0008B016F5F7F4F888199810E94800F009705
:1008E00031F0998388831B830A8381E001C080E013
:1008F000DF91CF911F910F910895CF93DF93EC017A
:1009000088819981892B29F08A819B818617970795
:1009100060F4CE010E946304882341F08C819D81A4
:10092000892B19F4E881F981108281E0DF91CF9160
:100930000895EF92FF920F931F93CF93DF93EC01F3
:100940007B018A01BA010E947D04811104C0CE019D
:100950000E94510407C01D830C83B70188819981CF
:100960000E948E10CE01DF91CF911F910F91FF90C9
:10097000EF900895FC011182108213821282158279
:10098000148216826115710559F0FB010190002057
:10099000E9F7AF0141505109461B570B0C949904DC
:1009A0000895CF93DF93EC01FB018617970761F061
:1009B000608171816115710529F0448155810E9422
:1009C000990402C00E945104CE01DF91CF91089595
:1009D000FC01118210821382128215821482168207
:1009E0000C94D104CF93DF93EC016115710561F094
:1009F000FB0101900020E9F7AF0141505109461B6E
:100A0000570B0E94990402C00E945104CE01DF914D
:100A1000CF910895EF92FF920F931F93CF93DF939F
:100A2000EC017B010C811D816115710511F480E0E1
:100A300016C04115510591F0040F151FB8010E9411
:100A40007D048823A1F3288139818C819D81B701A0
:100A5000820F931F0E948E101D830C8381E0DF9113
:100A6000CF911F910F91FF90EF900895CF93DF9357
:100A700000D0CDB7DEB769831A8241E050E0BE01F5
:100A80006F5F7F4F0E940A050F900F90DF91CF910B
:100A90000895FC0124813581232B31F421E0611577
:100AA0007105A1F0FB0108C0FC01808191816115F5
:100AB000710531F421E0FC018081882339F005C003
:100AC0000E94851021E0892B09F020E0822F0895F3
:100AD000FC01248135816217730748F4808191817C
:100AE000009729F0FC01E60FF71F8081089580E050
:100AF00008950F931F93CF93DF93EB014115510599
:100B0000E9F02097D9F0FC01648175812617370739
:100B1000A0F4621B730B8A01015011096017710761
:100B200008F48B01FC0160817181620F731FA801C1
:100B3000CE010E949510C00FD11F1882DF91CF9176
:100B40001F910F910895CF93DF93FC0184819581CC
:100B50004817590768F4C081D18170E0CE01840F35
:100B6000951F0E947A10009719F08C1B9D0B02C0F4
:100B70008FEF9FEFDF91CF91089540E050E00C940C
:100B8000A305BF92CF92DF92EF92FF920F931F9334
:100B9000CF93DF936C017B01EA01890124173507AC
:100BA00020F48D2FE901042F182F6DE371E0C601A9
:100BB0000E94BA04D70114968D919C9115978C17B9
:100BC0009D07C8F08017910708F48C01D701ED91BB
:100BD000FC911197E00FF11FB08010826D917C9114
:100BE0006C0F7D1FC6010E94F204D701ED91FC91AC
:100BF000E00FF11FB082C601DF91CF911F910F91DD
:100C0000FF90EF90DF90CF90BF900895CF93DF9348
:100C1000EC01FB01248135810E94C105CE01DF91E9
:100C2000CF910895FC0180819181009711F00C947F
:100C30004A1060E070E0CB010895CF92DF92EF920E
:100C4000FF920F931F93CF93DF936C017A01EB0117
:100C5000E60EF71E00E010E0CE15DF0561F06991A9
:100C6000D601ED91FC910190F081E02DC60109952E
:100C7000080F191FF1CFC801DF91CF911F910F917C
:100C8000FF90EF90DF90CF9008956115710581F08E
:100C9000DB010D900020E9F7AD0141505109461BE1
:100CA000570BDC01ED91FC910280F381E02D09945A
:100CB00080E090E00895AF92BF92CF92DF92EF92E2
:100CC000FF920F931F93CF93DF937C016B01C0E0E2
:100CD000D0E000E010E0D60114968D919C9115971C
:100CE000C817D90788F4D701ED91FC91A080B18095
:100CF000BE01C6010E946805682FC701F50109956C
:100D0000080F191F2196E7CFC801DF91CF911F91DE
:100D10000F91FF90EF90DF90CF90BF90AF9008952C
:100D20000C944506DC01ED91FC910190F081E02DE1
:100D300009940F931F93CF93DF93EC016DE00E9412
:100D400092068C016AE0CE010E949206800F911FEC
:100D5000DF91CF911F910F9108950F931F93CF9320
:100D6000DF93EC010E945B068C01CE010E94990684
:100D7000800F911FDF91CF911F910F9108950F93D5
:100D80001F93CF93DF93EC010E9492068C01CE015A
:100D90000E949906800F911FDF91CF911F910F91B3
:100DA00008950E9450030E94EC01CAEAD7E00E9415
:100DB000DE012097E1F30E94AA07F9CFFC01248508
:100DC0003585F901E05CFF4F808191813296208169
:100DD0003181821B930B8F7399270895FC018485C1
:100DE0009585FC01E05CFF4F408151813296208166
:100DF00031814217530741F00190F081E02DE80F57
:100E0000F91F808190E008958FEF9FEF0895FC0116
:100E100084859585FC01E05CFF4F408151813296CD
:100E2000208131814217530779F0A081B181A80F49
:100E3000B91F8C91208131812F5F3F4F2F73332752
:100E40003183208390E008958FEF9FEF0895FC0198
:100E500081A1882329F0A489B5898C9186FFFBCFD5
:100E600011A20895CF93DF93FC0126853785D90120
:100E7000A05CBF4F8D919C91119701968F7399271C
:100E8000E901CE5BDF4F4881598184179507D9F37B
:100E90000D90BC91A02DA20FB31F6C93A685B785B2
:100EA000A05CBF4F11969C938E93A689B7892C9115
:100EB00081E090E0078C02C0880F991F0A94E2F746
:100EC000282B2C9381E081A30488F589E02D808173
:100ED0008064808381E090E0DF91CF910895089550
:100EE0001F920F920FB60F9211242F933F934F939F
:100EF0008F939F93EF93FF938091C00082FD1CC05E
:100F00004091C6008091290290912A0201968F7328
:100F1000992720912B0230912C028217930771F0B0
:100F2000E0912902F0912A02E751FE4F408390930D
:100F30002A028093290202C08091C600FF91EF919E
:100F40009F918F914F913F912F910F900FBE0F90D6
:100F50001F90189583E891E00E94DE06892B11F01E
:100F60000C946F0708951F920F920FB60F921124E1
:100F70002F933F938F939F93EF93FF932091E501DE
:100F80003091E6018091E7019091E8012817390737
:100F900031F48091C1008F7D8093C10014C0E09135
:100FA000E701F091E801EB55FE4F20818091E701C8
:100FB0009091E80101968F7399279093E8018093AF
:100FC000E7012093C600FF91EF919F918F913F9190
:100FD0002F910F900FBE0F901F901895CF92DF9218
:100FE000EF92FF92CF93DF93EC016A017B014115F1
:100FF00081EE580761057105F9F0EC89FD8981E002
:1010000090E008A002C0880F991F0A94E2F780833D
:1010100060E079E08DE390E0A70196010E94F80D71
:101020002150310941095109569547953795279522
:10103000211580E1380798F0EC89FD89108260E87D
:1010400074E88EE190E0A70196010E94F80D21500E
:101050003109410951095695479537952795E889F2
:10106000F9893083EA89FB89208319A2EE89FF89F7
:10107000408181E090E09C010C8C02C0220F331F64
:101080000A94E2F7422B4083EE89FF8940819C015C
:101090000D8C02C0220F331F0A94E2F7422B4083CB
:1010A000EE89FF8940819C010E8C02C0220F331F04
:1010B0000A94E2F7422B4083EE89FF8920810F8C4E
:1010C00002C0880F991F0A94E2F7809582238083DB
:1010D000DF91CF91FF90EF90DF90CF900895109225
:1010E00086011092850188EE93E0A0E0B0E0809345
:1010F000870190938801A0938901B0938A0182E4CB
:1011000091E0909384018093830189EE91E0909324
:10111000900180938F0185EA91E0909392018093F2
:10112000910185EC90E0909394018093930184EC7D
:1011300090E0909396018093950180EC90E09093DD
:1011400098018093970181EC90E090939A018093AD
:10115000990182EC90E090939C0180939B0186EC36
:1011600090E090939E0180939D0184E080939F0185
:1011700083E08093A00187E08093A10185E08093C4
:10118000A20181E08093A30108958091600290E024
:1011900020916102821B9109089520916102809142
:1011A0006002281750F4E22FF0E0EE59FD4F8081E5
:1011B00090E02F5F2093610208958FEF9FEF0895D5
:1011C000E091610280916002E81730F4F0E0EE599E
:1011D000FD4F808190E008958FEF9FEF089508956F
:1011E000E0913902F0913A023097E1F030916102DA
:1011F000209160023217B0F040E0242F30E0261733
:10120000370754F4DC01A20FB31F5C91D901AE592A
:10121000BD4F5C934F5FF1CF10926102609360020B
:10122000CB0109940895E0913B02F0913C02309784
:1012300029F010923F0210923E0209940895CF9235
:10124000DF92EF92FF920F931F93CF93DF937C0176
:10125000CB018A0120913D02222389F0EB016B0131
:10126000C40ED51ECC15DD0569F06991D701ED914D
:10127000FC910190F081E02DC7010995F3CF642F17
:101280000E94D809C801DF91CF911F910F91FF9063
:10129000EF90DF90CF900895CF93DF931F92CDB75B
:1012A000DEB7698320913D022223D1F020913E02D6
:1012B000203240F021E030E0FC013383228380E0E3
:1012C00090E015C080913F02E82FF0E0E05CFD4F18
:1012D000998190838F5F80933F0280933E0205C087
:1012E00061E0CE0101960E94D80981E090E00F9064
:1012F000DF91CF910895FC011382128248EE53E0F2
:1013000060E070E0448355836683778382E591E0F3
:10131000918380830895109261021092600210926E
:101320003F0210923E020C94B609CF93DF93EC017A
:10133000862F0E94D40983E199E00E94F60980EF8C
:1013400098E00E94F109CE01DF91CF910C948B09B6
:1013500070933A0260933902089570933C0260934F
:101360003B0208958DE292E00C947B091092EF020B
:1013700081E08093ED021092EC0261E082E10E9434
:10138000ED0361E083E10E94ED03E9EBF0E0808191
:101390008E7F808380818D7F808388E48093B800F6
:1013A00085E48093BC000895880F8093BA00089567
:1013B000613298F42091EF02243089F46093A40202
:1013C000FC0186EA92E0DC012A2F281B261718F47C
:1013D00021912D93F9CF80E0089581E0089582E076
:1013E00008959093E9028093E80208959093EB02A8
:1013F0008093EA02089585ED8093BC008091BC0043
:1014000084FDFCCF1092EF02089585EC8093BC0020
:101410001092EF0208951F920F920FB60F921124AF
:101420002F933F934F935F936F937F938F939F93EC
:10143000AF93BF93EF93FF938091B900887F80367D
:1014400009F49CC068F5883209F45BC090F48031DF
:1014500009F454C038F4882309F4F5C0883009F43D
:101460004DC0F5C0883109F44CC0803209F45DC02C
:10147000EEC0803409F468C048F4803309F455C0E4
:10148000883309F0E4C080938202A8C0803509F453
:101490004FC0883509F45DC0883409F0D8C0D5C084
:1014A000883909F4C6C0A8F4883709F467C038F44D
:1014B000883609F463C0803709F460C0C8C0883832
:1014C00009F4B7C0803909F45FC0803809F0BFC0A3
:1014D0005BC0803B09F485C038F4803A09F466C0EB
:1014E000883A09F47EC0B3C0803C09F4A6C0883CA9
:1014F00009F4A3C0883B09F489C0A9C08091EE0219
:1015000010C09091C7028091C602981770F5E091C3
:10151000C70281E08E0F8093C702F0E0E853FD4FD1
:1015200080818093BB0085EC85C0809382028DC052
:10153000E091C70281E08E0F8093C7028091BB00CB
:10154000F0E0E853FD4F80839091C7028091C6027E
:101550006DC0E091C70281E08E0F8093C702809139
:10156000BB00F0E0E853FD4F80838091ED028111D4
:101570006CC081E08093EC0284EA60C083E08093D9
:10158000EF0210928302CFCF80918302803208F065
:1015900050C0E091830281E08E0F8093830280919E
:1015A000BB00F0E0EC57FD4F8083BDCF80918302FC
:1015B000803230F4E0918302F0E0EC57FD4F10826E
:1015C0000E94FB096091830270E0E091E802F091D3
:1015D000E90284E892E00995109283020E94050ACC
:1015E00036C084E08093EF021092A5021092A4020C
:1015F000E091EA02F091EB0209958091A402811139
:1016000005C081E08093A4021092A602E091A50299
:1016100081E08E0F8093A502F0E0EA55FD4F8081B6
:101620008093BB009091A5028091A402981708F4C2
:101630007ACF85E88093BC000AC085EC8093BC001B
:101640001092EF0204C0109282020E94FB09FF91E7
:10165000EF91BF91AF919F918F917F916F915F912A
:101660004F913F912F910F900FBE0F901F901895A3
:101670001F920F920FB60F9211242F933F934F9307
:101680005F936F937F938F939F93AF93BF93EF93EA
:10169000FF938091F10287FF05C0109285001092A0
:1016A00084001AC02091F102332727FD30958091E4
:1016B000F00290E0281739077CF48091F102992715
:1016C00087FD9095FC01EE0FFF1FE80FF91FEE500C
:1016D000FD4F808186FD15C08091F1028F5F809360
:1016E000F1022091F102332727FD30958091F0021D
:1016F00090E028173907BCF48091F1028C305CF13E
:1017000012C08091F102992787FD9095FC01EE0FA0
:10171000FF1FE80FF91FEE50FD4F808160E08F73CF
:101720000E94ED03D9CF80918400909185000496AA
:1017300080349C4918F480E49CE905C080918400C1
:1017400090918500049690938900809388008FEF94
:101750008093F10238C0809184009091850020919F
:10176000F102332727FD3095F901EE0FFF1FE20F3D
:10177000F31FEE50FD4F21813281820F931F909312
:101780008900809388008091F102992787FD9095C8
:10179000FC01EE0FFF1FE80FF91FEE50FD4F808197
:1017A00086FF11C08091F102992787FD9095FC0179
:1017B000EE0FFF1FE80FF91FEE50FD4F808161E033
:1017C0008F730E94ED03FF91EF91BF91AF919F91B5
:1017D0008F917F916F915F914F913F912F910F90DA
:1017E0000FBE0F901F9018952091F0022C30A0F49E
:1017F00031E0320F3093F002FC012083822F90E021
:10180000FC01EE0FFF1FE80FF91FEE50FD4F88EBB4
:101810009BE09283818308952FEFFC01208308953C
:10182000DF92EF92FF920F931F93CF93DF93EC0120
:10183000D62E7A01890188818C3008F066C061E07B
:101840008D2D0E94B4038881A82FB0E0FD01EE0F1A
:10185000FF1FEA0FFB1FEE50FD4F2D2D2F739081C0
:10186000907C922B908360E272E06E197F0977FF83
:1018700002C06D5F7F4F7595679575956795698314
:1018800040E659E0401B510B57FF02C04D5F5F4FD0
:1018900055954795559547954A832CE0622F0E94B0
:1018A000EC0D289FB001112420E030E0A901460F83
:1018B000571FFA01EE0FFF1FE40FF51FEE50FD4F0B
:1018C000908196FD16C02F5F3F4F2C30310571F788
:1018D00081110FC01092800082E0809381001092ED
:1018E000850010928400B19A80916F00826080938D
:1018F0006F00888190E0FC01EE0FFF1FE80FF91FD9
:10190000EE50FD4F8081806480838881DF91CF918C
:101910001F910F91FF90EF90DF90089520E639E03E
:1019200040E252E00C94100CFC0180818C3070F588
:10193000918128E830E0291B310997FD3395220F6A
:10194000331F220F331F621773077CF0928128E543
:1019500032E0291B310997FD3395220F331F220FE7
:10196000331F621773070CF49B014FB7F89490E094
:10197000FC01EE0FFF1FE80FF91FEE50FD4F225044
:101980003109220F331F328321834FBF08954F92B5
:101990005F926F927F92AF92BF92CF92DF92EF925F
:1019A000FF920F931F93CF93DF93EC01603282E09D
:1019B00078070CF040C077FD06C0653B71052CF040
:1019C00064EB70E002C060E070E0898128E830E0FC
:1019D000281B310987FD3395220F331F220F331F38
:1019E0005901CC24B7FCC094DC2C882777FD809566
:1019F000982F2A8148E552E0421B510927FD539553
:101A0000440F551F440F551F2A01662457FC60944C
:101A1000762C7F926F925F924F9214EBE12EF12C15
:101A200000E010E020E030E0A9010E94950D0F9049
:101A30000F900F900F90CE01DF91CF911F910F91DA
:101A4000FF90EF90DF90CF90BF90AF907F906F901E
:101A50005F904F900C94940CFC0180818F3FB1F00B
:101A600090E0FC01EE0FFF1FE80FF91FEE50FD4F55
:101A70008181928143E0880F991F4A95E1F754E0F4
:101A8000969587955A95E1F70296089580E090E043
:101A90000895AF92BF92CF92DF92EF92FF920F9391
:101AA0001F93CF93DF93EC010E942C0D2A8148E510
:101AB00052E0421B510927FD5395440F551F440F17
:101AC000551F7A010027F7FC0095102F498128E85F
:101AD00030E0241B310947FD3395220F331F220FBD
:101AE000331F442737FD4095542F0196BC018827AA
:101AF00077FD8095982F1F921F921F92E4EBEF9332
:101B0000A12CB12C65010E94950D0F900F900F90A4
:101B10000F90CB01DF91CF911F910F91FF90EF902C
:101B2000DF90CF90BF90AF9008954F925F926F92E9
:101B30007F92AF92BF92CF92DF92EF92FF920F937C
:101B40001F93CF93DF93CDB7DEB729013A01621B14
:101B5000730B840B950B29893A894B895C892A1967
:101B60003B094C095D09298B3A8B4B8B5C8B9B01A4
:101B7000AC0169897A898B899C890E94DC0DE41803
:101B8000F50806091709A80197010E941A0E2A0DE7
:101B90003B1D4C1D5D1DCA01B901DF91CF911F9105
:101BA0000F91FF90EF90DF90CF90BF90AF907F901C
:101BB0006F905F904F900895DB018F939F930E94E9
:101BC000390EBF91AF91A29F800D911DA39F900DE3
:101BD000B29F900D11240895991B79E004C0991FBC
:101BE000961708F0961B881F7A95C9F78095089577
:101BF000A1E21A2EAA1BBB1BFD010DC0AA1FBB1F11
:101C0000EE1FFF1FA217B307E407F50720F0A21B82
:101C1000B30BE40BF50B661F771F881F991F1A94EF
:101C200069F760957095809590959B01AC01BD0119
:101C3000CF010895052E97FB1EF400940E94310EEB
:101C400057FD07D00E94F80D07FC03D04EF40C940A
:101C5000310E50954095309521953F4F4F4F5F4F36
:101C6000089590958095709561957F4F8F4F9F4F08
:101C700008950E944A0EA59F900DB49F900DA49FB9
:101C8000800D911D11240895EE0FFF1F0590F49112
:101C9000E02D0994A29FB001B39FC001A39F700DD6
:101CA000811D1124911DB29F700D811D1124911D64
:101CB0000895CF93DF938230910510F482E090E095
:101CC000E0911803F091190320E030E0A0E0B0E0CB
:101CD000309739F14081518148175907B8F04817BA
:101CE000590771F482819381109729F013969C9380
:101CF0008E9312972CC0909319038093180327C0DA
:101D00002115310531F04217530718F0A901DB0105
:101D100001C0EF019A01BD01DF010280F381E02DD6
:101D2000D7CF21153105F9F0281B390B24303105A7
:101D300080F48A819B816115710521F0FB019383F9
:101D4000828304C09093190380931803FE01329696
:101D500044C0FE01E20FF31F819391932250310999
:101D6000398328833AC02091160330911703232B1F
:101D700041F4209102013091030130931703209325
:101D8000160320910001309101012115310541F424
:101D90002DB73EB74091040150910501241B350B2E
:101DA000E0911603F0911703E217F307A0F42E1B3E
:101DB0003F0B2817390778F0AC014E5F5F4F2417AF
:101DC000350748F04E0F5F1F5093170340931603DB
:101DD0008193919302C0E0E0F0E0CF01DF91CF91D9
:101DE0000895CF93DF93009709F487C0FC013297E1
:101DF00013821282C0911803D0911903209781F4A5
:101E000020813181280F391F80911603909117038B
:101E10008217930779F5F0931703E09316036DC0CB
:101E2000DE0120E030E0AE17BF0750F412964D916E
:101E30005C9113979D014115510509F1DA01F3CF2A
:101E4000B383A28340815181840F951F8A179B071A
:101E500071F48D919C911197840F951F0296918337
:101E6000808312968D919C91139793838283211581
:101E7000310529F4F0931903E09318033EC0D9010A
:101E80001396FC93EE9312974D915D91A40FB51F9D
:101E9000EA17FB0779F480819181840F951F0296E0
:101EA000D90111969C938E938281938113969C9372
:101EB0008E931297E0E0F0E08A819B81009719F001
:101EC000FE01EC01F9CFCE01029628813981820F03
:101ED000931F20911603309117032817390769F4CF
:101EE000309729F4109219031092180302C013823C
:101EF0001282D0931703C0931603DF91CF910895F8
:101F0000A0E0B0E0E6E8FFE00C94BD10EC01CB01EE
:101F1000209719F40E94590EB8C0FE01E60FF71F72
:101F20009E0122503109E217F30708F4ACC0D90131
:101F30000D911C91119706171707B8F00530110580
:101F400008F49FC0A801445051094617570708F4E8
:101F500098C002501109061B170B019311936D9342
:101F60007C93CF010E94F10E8CC05B01A01AB10AD4
:101F70004E01800E911EA0911803B0911903612C9F
:101F8000712C60E070E0109709F449C0A815B905FC
:101F9000C9F5ED90FC901197670142E0C40ED11C89
:101FA000CA14DB0478F147018A189B08640142E0F7
:101FB000C40ED11C1296BC9012971396AC91B5E04A
:101FC000CB16D10440F0B282A38391828082D901E2
:101FD0008D939C9309C00E5F1F4F0E0D1F1DF901BD
:101FE00011830083EB2DFA2F6115710531F0DB01B0
:101FF0001396FC93EE93129744C0F0931903E09369
:1020000018033FC06D917C9111976616770608F40E
:102010003B01BD0112960D90BC91A02DB4CF6091F3
:1020200016037091170368157905E9F468167906A7
:10203000D0F440910001509101014115510541F446
:102040004DB75EB76091040170910501461B570BB7
:10205000E417F507C0F4F0931703E0931603F901B2
:10206000918380830EC00E94590E7C01009759F025
:10207000A801BE010E947110CE010E94F10EC7019D
:1020800004C0CE0102C080E090E0CDB7DEB7EEE044
:102090000C94D9101F93FC0199278827BC01E89460
:1020A00011911032E9F3193010F01E30C8F31B32D1
:1020B00051F01D3249F4689406C00E94A410610FCB
:1020C000711D811D911D119110531A30B0F33EF412
:1020D00090958095709561957F4F8F4F9F4F1F9181
:1020E0000895FB01DC0102C001900D924150504067
:1020F000D8F70895FC018191861721F08823D9F73C
:10210000992708953197CF010895FB01DC018D9146
:10211000019080190110D9F3990B0895FB01DC019E
:1021200001900D920020E1F70895FB01DC01415080
:10213000504048F001900D920020C9F701C01D9257
:1021400041505040E0F70895592F482F372F262F40
:10215000660F771F881F991F660F771F881F991FAB
:10216000620F731F841F951F660F771F881F991FAB
:1021700008952F923F924F925F926F927F928F922B
:102180009F92AF92BF92CF92DF92EF92FF920F9306
:102190001F93CF93DF93CDB7DEB7CA1BDB0B0FB610
:1021A000F894DEBF0FBECDBF09942A8839884888CD
:1021B0005F846E847D848C849B84AA84B984C88463
:1021C000DF80EE80FD800C811B81AA81B981CE0F5A
:1021D000D11D0FB6F894DEBF0FBECDBFED0108953F
:1021E00010E0C8ECD0E004C0FE010E94460E22962A
:0A21F000CA3CD107C9F7F894FFCFED
:1021FA0000001A032000010000000B000A0006007C
:10220A00050053656E64696E672063686172200019
:10221A006D6F7665003100300070616E0074696C14
:10222A007400492052656369657665642000000080
:10223A00000032071D06DE060707EE062707000024
:0E224A0000004C091F09C508CD08E008EF0888
:00000001FF
