:100000000C9465000C948D000C948D000C948D0064
:100010000C948D000C948D000C948D000C948D002C
:100020000C948D000C948D000C948D000C942A0B74
:100030000C948D000C948D000C948D000C948D000C
:100040000C94B2020C948D000C9471070C94B407BC
:100050000C948D000C948D000C948D000C948D00EC
:100060000C94FD090C948D000000000700020100B3
:100070000003040600000000000000000102040864
:100080001020408001020408102001020408102002
:10009000040404040404040402020202020203032E
:1000A00003030303000000002300260029000000D2
:1000B0000000250028002B0000000000240027007D
:1000C0002A00E4017708A409000211241FBECFEF23
:1000D000D8E0DEBFCDBF11E0A0E0B1E0E2EEF1E29A
:1000E00002C005900D92AA35B107D9F723E0AAE521
:1000F000B1E001C01D92A631B207E1F710E0C4E6FD
:10010000D0E004C02197FE010E94320EC136D10713
:10011000C9F70E94CA060C94E4100C94000061E038
:1001200087E00E94E70360E27EE480E090E00E94C6
:10013000210361E088E00E94E70360E087E00C941F
:10014000E703EF92FF920F931F93CF93DF93CDB707
:10015000DEB72E970FB6F894DEBF0FBECDBF7C0181
:100160006CE20E94B6058C019C0140E050E0B701B2
:10017000CE0108960E94BA05A8014F5F5F4FB701F4
:10018000CE0101960E940006CE0101960E940C0647
:100190008B01CE0101960E9440046EE071E0CE0119
:1001A00008960E943D058823D9F10115110549F4EF
:1001B0006DE270E083E691E00E94C40C6DE270E0B5
:1001C0002CC00130110549F467E870E083E691E046
:1001D0000E94C40C67E870E020C00F3F1F4FA9F4D5
:1001E00083E691E00E943E0D8B3591051CF063E1A2
:1001F00071E006C08A35910509F459C065E171E0E6
:1002000088E691E00E94E50452C06AE570E083E66A
:1002100091E00E94C40C6AE570E080E691E045C080
:1002200067E171E0CE0108960E943D058823D9F070
:100230000115110541F48DE591E00E943E0DBC01D0
:100240006B5F7F4F0DC00130110541F48DE591E0EA
:100250000E943E0DBC016550710902C064EB70E064
:100260008DE591E022C06BE171E0CE0108960E941D
:100270003D058823E1F00115110541F48AE591E07F
:100280000E943E0DBC016B5F7F4F0DC00130110518
:1002900041F48AE591E00E943E0DBC016550710970
:1002A00002C067E870E08AE591E00E94C40CCE01CC
:1002B00008960E9440042E960FB6F894DEBF0FBE3B
:1002C000CDBFDF91CF911F910F91FF90EF900895D7
:1002D00064E670E080E090E00E9421038CE00E94E0
:1002E0001704892B11F00C948F00089580EA8093F5
:1002F000B80040E855E260E070E08FE791E00E94CE
:10030000EF0760E589E292E00E94870968E072E009
:1003100089E292E00E949A0967E472E089E292E041
:100320000E949F0960910C0170910D0183E691E09C
:100330000E94890C60910A0170910B0180E691E0A6
:100340000E94890C60910801709109018DE591E08E
:100350000E94890C60910601709107018AE591E085
:100360000E94890C6AE570E083E691E00E94C40C6B
:100370006AE570E080E691E00E94C40C64EB70E0F6
:100380008DE591E00E94C40C67E870E08AE591E099
:100390000E94C40C61E087E00E94AB0360E087E04C
:1003A0000E94E70361E088E00E94AB0360E087E021
:1003B0000E94E70360E08CE00E94AB0364EF71E011
:1003C00080E090E00C9421036BE271E08FE691E015
:1003D0000E94AE046BE271E088E691E00E94AE04F8
:1003E00083E691E00E94EB0B80E691E00E94EB0B2C
:1003F0008DE591E00E94EB0B8AE591E00C94EB0B0C
:1004000088E691E00E9440048FE691E00C9440045D
:10041000CF93DF93CDB7DEB727970FB6F894DEBF43
:100420000FBECDBF89E292E00E94BA088A3031F057
:10043000682F8FE691E00E942A0520C060E271E0FB
:100440008FE791E00E9489066FE671E08FE791E007
:100450000E94A6066FE671E0CE0101960E94DB04C1
:10046000CE0101960E94A100CE0101960E94400497
:100470006BE271E08FE691E00E94E50427960FB6EB
:10048000F894DEBF0FBECDBFDF91CF910895EF92FC
:10049000FF920F931F93CF93DF93CDB7DEB70DB7C6
:1004A0001EB740916C0150916D014F5F5F4F80917D
:1004B000660190916701019684179507F4F58DB751
:1004C0009EB7841B950B0FB6F8949EBF0FBE8DBFD1
:1004D00001967C0120E030E0BC0188E691E00E94BA
:1004E0006D056CE271E08FE791E00E948906E09172
:1004F0006601F0916701EE0DFF1D60818FE791E0CD
:100500000E94B8068091660190916701F701E80F9B
:10051000F91F608189E292E00E943E0980916601A4
:1005200090916701019690936701809366010FB6E1
:10053000F8941EBF0FBE0DBF09C06AE089E292E0C9
:100540000E943E0910926701109266010FB6F8945E
:100550001EBF0FBE0DBFDF91CF911F910F91FF9076
:10056000EF9008951F920F920FB60F9211242F93C0
:100570003F938F939F93AF93BF9380917701909117
:100580007801A0917901B0917A013091760123E050
:10059000230F2D3720F40196A11DB11D05C026E8BB
:1005A000230F0296A11DB11D209376018093770140
:1005B00090937801A0937901B0937A0180917B01A7
:1005C00090917C01A0917D01B0917E010196A11DC9
:1005D000B11D80937B0190937C01A0937D01B0932A
:1005E0007E01BF91AF919F918F913F912F910F907D
:1005F0000FBE0F901F9018953FB7F89480917B0124
:1006000090917C01A0917D01B0917E0126B5A89BBF
:1006100005C02F3F19F00196A11DB11D3FBFBA2F94
:10062000A92F982F8827820F911DA11DB11DBC01F4
:10063000CD0142E0660F771F881F991F4A95D1F7B9
:100640000895CF92DF92EF92FF92CF93DF936B01E9
:100650007C010E94FC02EB01C114D104E104F1040D
:1006600079F00E94FC026C1B7D0B683E7340A0F386
:1006700081E0C81AD108E108F108C851DC4FECCF7D
:10068000DF91CF91FF90EF90DF90CF900895789415
:1006900084B5826084BD84B5816084BD85B5826087
:1006A00085BD85B5816085BDEEE6F0E08081816025
:1006B0008083E1E8F0E01082808182608083808125
:1006C00081608083E0E8F0E0808181608083E1EBFD
:1006D000F0E0808184608083E0EBF0E080818160E5
:1006E0008083EAE7F0E0808184608083808182609B
:1006F0008083808181608083808180688083109284
:10070000C1000895833081F028F4813099F082305F
:10071000A1F008958630A9F08730B9F08430D1F483
:10072000809180008F7D03C0809180008F778093BF
:100730008000089584B58F7702C084B58F7D84BD15
:1007400008958091B0008F7703C08091B0008F7DB5
:100750008093B0000895CF93DF9390E0FC01E458BC
:10076000FF4F2491FC01E057FF4F8491882361F1F2
:1007700090E0880F991FFC01E854FF4FC591D49178
:10078000FC01E255FF4FA591B491611109C09FB7DB
:10079000F8948881209582238883EC912E230BC0C6
:1007A000623061F49FB7F8943881822F809583235B
:1007B0008883EC912E2B2C939FBF06C08FB7F894A3
:1007C000E8812E2B28838FBFDF91CF9108951F934F
:1007D000CF93DF93282F30E0F901E859FF4F849140
:1007E000F901E458FF4FD491F901E057FF4FC4914C
:1007F000CC23C9F0162F81110E948203EC2FF0E068
:10080000EE0FFF1FE255FF4FA591B4918FB7F894FB
:10081000111105C09C91ED2FE095E92302C0EC91E8
:10082000ED2BEC938FBFDF91CF911F910895CF9364
:10083000DF93282F30E0F901E859FF4F8491F90147
:10084000E458FF4FD491F901E057FF4FC491CC23F6
:1008500091F081110E948203EC2FF0E0EE0FFF1F58
:10086000EC55FF4FA591B491EC91ED2381E090E020
:1008700021F480E002C080E090E0DF91CF91089504
:10088000FC01808191810C94DC0ECF93DF93EC010D
:1008900088819981009711F00E94DC0E19821882DC
:1008A0001D821C821B821A82DF91CF9108950F93C3
:1008B0001F93CF93DF93EC018B016F5F7F4F888194
:1008C00099810E94740F009731F0998388831B836C
:1008D0000A8381E001C080E0DF91CF911F910F91E9
:1008E0000895CF93DF93EC0188819981892B29F0BA
:1008F0008A819B818617970760F4CE010E94570476
:10090000882341F08C819D81892B19F4E881F9813C
:10091000108281E0DF91CF910895EF92FF920F93C3
:100920001F93CF93DF93EC017B018A01BA010E94F0
:100930007104811104C0CE010E94450407C01D83CB
:100940000C83B701888199810E948210CE01DF91CA
:10095000CF911F910F91FF90EF900895FC011182AC
:10096000108213821282158214821682611571051B
:1009700051F0FB0101900020E9F73197AF01461BD0
:10098000570B0C948D040895CF93DF93EC01FB017A
:100990008617970761F0608171816115710529F0F3
:1009A000448155810E948D0402C00E944504CE01FD
:1009B000DF91CF910895FC0111821082138212827F
:1009C0001582148216820C94C404CF93DF93EC0139
:1009D0006115710559F0FB0101900020E9F731978D
:1009E000AF01461B570B0E948D0402C00E944504B4
:1009F000CE01DF91CF910895EF92FF920F931F9355
:100A0000CF93DF93FC01248135816115710511F4C9
:100A100080E019C041155105A9F07B01EC018A0164
:100A2000020F131FB8010E947104882389F32881E3
:100A300039818C819D81B701820F931F0E948210A2
:100A40001D830C8381E0DF91CF911F910F91FF9067
:100A5000EF900895CF93DF9300D0CDB7DEB76983D1
:100A60001A8241E050E0BE016F5F7F4F0E94FC049C
:100A70000F900F90DF91CF910895FC012481358173
:100A8000232B31F421E061157105A1F0FB0108C0B1
:100A9000FC01808191816115710531F421E0FC0137
:100AA0008081882339F005C00E94791021E0892BCC
:100AB00009F020E0822F0895FC012481358162171E
:100AC000730748F480819181009729F0FC01E60FBB
:100AD000F71F8081089580E008950F931F93CF93AF
:100AE000DF934115510519F16115710501F1DC0123
:100AF0001496ED91FC9115972E173F0718F0FB0106
:100B0000108215C0E21BF30BEA012197EC17FD07D9
:100B100008F4EF018B01FC0160817181620F731F8A
:100B2000AE01C8010E948910C00FD11F1882DF9149
:100B3000CF911F910F910895CF93DF93FC012481F2
:100B400035814217530768F4C081D18170E0CE012E
:100B5000840F951F0E946E10009719F08C1B9D0B3F
:100B600002C08FEF9FEFDF91CF91089540E050E0FA
:100B70000C949C05BF92CF92DF92EF92FF920F935D
:100B80001F93CF93DF937C016B018A01E901241746
:100B9000350720F4812F8901C42FD82F6BE271E033
:100BA000C7010E94AE04D60114968D919C911597B1
:100BB00080179107D0F08C179D0708F4EC01D6013F
:100BC000ED91FC911197EC0FFD1FB08010824D91BB
:100BD0005C91BA01600F711FC7010E94E504D60144
:100BE000ED91FC91EC0FFD1FB082C701DF91CF9119
:100BF0001F910F91FF90EF90DF90CF90BF900895DD
:100C0000CF93DF93EC01FB01248135810E94BA056B
:100C1000CE01DF91CF910895FC01808191810097F1
:100C200011F00C943E1060E070E0CB010895CF927B
:100C3000DF92EF92FF920F931F93CF93DF936C019C
:100C4000EB017B01E40EF51E00E010E0CE15DF05A0
:100C500061F06991D601ED91FC910190F081E02D58
:100C6000C6010995080F191FF1CFC801DF91CF9177
:100C70001F910F91FF90EF90DF90CF900895611535
:100C8000710579F0FB0101900020E9F73197AF0180
:100C9000461B570BDC01ED91FC910280F381E02DA6
:100CA000099480E090E00895AF92BF92CF92DF92D6
:100CB000EF92FF920F931F93CF93DF936C017B0111
:100CC000C0E0D0E000E010E0D70114968D919C9137
:100CD0001597C817D90788F4D601ED91FC91A0802B
:100CE000B180BE01C7010E945C05682FC601F501F5
:100CF0000995080F191F2196E7CFC801DF91CF9101
:100D00001F910F91FF90EF90DF90CF90BF90AF9029
:100D100008950C943F06DC01ED91FC910190F08167
:100D2000E02D09940F931F93CF93DF93EC016DE0B7
:100D30000E948B068C016AE0CE010E948B06800F18
:100D4000911FDF91CF911F910F9108950F931F93E2
:100D5000CF93DF93EC010E9454068C01CE010E94D8
:100D60009206800F911FDF91CF911F910F910895EF
:100D70000F931F93CF93DF93EC010E948B068C019E
:100D8000CE010E949206800F911FDF91CF911F919B
:100D90000F9108950E9447030E947601CBEAD7E0A5
:100DA0000E9468012097E1F30E94AB07F9CFFC0194
:100DB00024853585F901E05CFF4F80819181329671
:100DC00020813181821B930B8F7399270895DC0159
:100DD0001C96ED91FC911D97DF01A05CBF4F2D91FA
:100DE0003C91119712968D919C9111972817390774
:100DF00039F08D919C91E80FF91F808190E0089562
:100E00008FEF9FEF0895FC01A485B585FD01E05C9F
:100E1000FF4F2081318132968081918128173907D7
:100E200079F080819181A80FB91F8C912081318147
:100E30002F5F3F4F2F7333273183208390E0089536
:100E40008FEF9FEF0895FC0181A1882329F0A489E9
:100E5000B5898C9186FFFBCF11A208950F931F9344
:100E6000CF93DF93FC01A685B7858D01005C1F4FF2
:100E7000E8018881998101968F739927AD014E5BB6
:100E80005F4FEA012881398182179307D1F3E80186
:100E900028813981A20FB31F6C93A685B785A05C0A
:100EA000BF4F11969C938E93A689B7892C9181E0B0
:100EB00090E0078C02C0880F991F0A94E2F7822BFA
:100EC0008C9381E081A30488F589E02D8081806482
:100ED000808381E090E0DF91CF911F910F91089581
:100EE00008951F920F920FB60F9211242F934F93D4
:100EF0005F938F939F93EF93FF938091C00082FD48
:100F00001CC02091C6008091250290912602019676
:100F10008F739927409127025091280284179507D3
:100F200071F0E0912502F0912602EB51FE4F2083F3
:100F3000909326028093250202C08091C600FF9103
:100F4000EF919F918F915F914F912F910F900FBED5
:100F50000F901F9018958FE791E00E94D706892B7C
:100F600011F00C94700708951F920F920FB60F9214
:100F700011242F933F938F939F93EF93FF9320918F
:100F8000E1013091E2018091E3019091E4012817A1
:100F9000390731F48091C1008F7D8093C10014C066
:100FA000E091E301F091E401EF55FE4F2081809143
:100FB000E3019091E40101968F7399279093E401E6
:100FC0008093E3012093C600FF91EF919F918F9151
:100FD0003F912F910F900FBE0F901F901895CF92B9
:100FE000DF92EF92FF920F931F93CF93DF93EC0169
:100FF0006A017B014115514E6105710509F1EC89CA
:10100000FD8981E090E008A002C0880F991F0A9432
:10101000E2F7808360E079E08DE390E0A70196013C
:101020000E94E60D89019A01015011092109310937
:101030003695279517950795980101151041A8F049
:10104000EC89FD89108260E874E88EE190E0A701E8
:1010500096010E94E60DDA01C9010197A109B109C3
:10106000B695A795979587959C01E889F98930836E
:10107000EA89FB89208319A2EE89FF89408181E0FA
:1010800090E09C010C8C02C0220F331F0A94E2F7FF
:10109000242B2083EE89FF8940819C010D8C02C0A6
:1010A000220F331F0A94E2F7242B2083EE89FF8955
:1010B00040819C010E8C02C0220F331F0A94E2F77C
:1010C000242B2083EE89FF8920810F8C02C0880F9A
:1010D000991F0A94E2F7809582238083DF91CF9154
:1010E0001F910F91FF90EF90DF90CF900895EFE761
:1010F000F1E01382128288EE93E0A0E0B0E08483F6
:101100009583A683B7838EE391E09183808385EEF8
:1011100091E09587848781EA91E09787868785ECBF
:1011200090E0918B808B84EC90E0938B828B80ECB1
:1011300090E0958B848B81EC90E0978B868B82EC92
:1011400090E0918F808F86EC90E0938F828F84E087
:10115000848F83E0858F87E0868F85E0878F81E0AD
:1011600080A3089580915C0290E020915D02821B33
:101170009109089590915D0280915C02981750F456
:10118000E92FF0E0E25AFD4F208130E09F5F90931D
:101190005D0202C02FEF3FEFC9010895E0915D02AB
:1011A00080915C02E81730F4F0E0E25AFD4F808154
:1011B00090E008958FEF9FEF08950895AC01E091BE
:1011C0003502F09136023097E1F090915D02809106
:1011D0005C029817B0F090E0292F30E0261737070F
:1011E00054F4DA01A20FB31F8C91D901A25ABD4F5A
:1011F0008C939F5FF1CF10925D0260935C02CB01F4
:1012000009940895E0913702F0913802309729F05F
:1012100010923B0210923A0209940895CF92DF9205
:10122000EF92FF920F931F93CF93DF937C01262FB2
:10123000972F8A0180913902882391F0C62FD72FEA
:101240006E01C40ED51ECC15DD0571F06991D70174
:10125000ED91FC910190F081E02DC7010995F3CF4C
:10126000642F822F0E94CA09C801DF91CF911F917C
:101270000F91FF90EF90DF90CF900895CF93DF9381
:101280001F92CDB7DEB76983209139022223D1F0B6
:1012900020913A02203240F021E030E0FC0133831B
:1012A000228380E090E015C080913B02E82FF0E0BF
:1012B000E45CFD4F998190838F5F80933B02809324
:1012C0003A0205C061E0CE0101960E94CA0981E0A0
:1012D00090E00F90DF91CF910895FC01138212826C
:1012E00088EE93E0A0E0B0E084839583A683B78383
:1012F0008EE491E091838083089510925D021092B4
:101300005C0210923B0210923A020C94A809CF930F
:10131000DF93EC01862F0E94C60982E099E00E94CB
:10132000E8098EED98E00E94E309CE01DF91CF91AC
:101330000C947D0970933602609335020895709382
:10134000380260933702089589E292E00C946D09A7
:101350001092EB0281E08093E9021092E80261E0D2
:1013600082E10E94E70361E083E10E94E703E9EB89
:10137000F0E080818E7F808380818D7F808388E410
:101380008093B80085E48093BC000895880F809313
:10139000BA000895613298F42091EB02243089F468
:1013A0006093A002FC0122EA32E0D9018A2F821B5D
:1013B000861718F481918D93F9CF80E0089581E02C
:1013C000089582E008959093E5028093E4020895E1
:1013D0009093E7028093E602089585ED8093BC0028
:1013E0008091BC0084FDFCCF1092EB02089585EC47
:1013F0008093BC001092EB0208951F920F920FB6DB
:101400000F9211242F933F934F935F936F937F938A
:101410008F939F93AF93BF93EF93FF938091B90006
:10142000887F803609F49CC068F5883209F45BC077
:1014300090F4803109F454C038F4882309F4F5C0DD
:10144000883009F44DC0F5C0883109F44CC08032B1
:1014500009F45DC0EEC0803409F468C048F48033FC
:1014600009F455C0883309F0E4C080937E02A8C017
:10147000803509F44FC0883509F45DC0883409F01F
:10148000D8C0D5C0883909F4C6C0A8F4883709F493
:1014900067C038F4883609F463C0803709F460C047
:1014A000C8C0883809F4B7C0803909F45FC08038F3
:1014B00009F0BFC05BC0803B09F485C038F4803AB6
:1014C00009F466C0883A09F47EC0B3C0803C09F4D0
:1014D000A6C0883C09F4A3C0883B09F489C0A9C010
:1014E0008091EA0210C09091C3028091C2029817C5
:1014F00070F5E091C30281E08E0F8093C302F0E0AB
:10150000EC53FD4F80818093BB0085EC85C08093B8
:101510007E028DC0E091C30281E08E0F8093C302F2
:101520008091BB00F0E0EC53FD4F80839091C302AB
:101530008091C2026DC0E091C30281E08E0F809362
:10154000C3028091BB00F0E0EC53FD4F808380919B
:10155000E90281116CC081E08093E80284EA60C0F6
:1015600083E08093EB0210927F02CFCF80917F02C5
:10157000803208F050C0E0917F0281E08E0F8093AE
:101580007F028091BB00F0E0E058FD4F8083BDCF2B
:1015900080917F02803230F4E0917F02F0E0E058E9
:1015A000FD4F10820E94ED0960917F0270E0E09192
:1015B000E402F091E50280E892E0099510927F0242
:1015C0000E94F70936C084E08093EB021092A102DA
:1015D0001092A002E091E602F091E7020995809155
:1015E000A002811105C081E08093A0021092A202A6
:1015F000E091A10281E08E0F8093A102F0E0EE5510
:10160000FD4F80818093BB009091A1028091A00248
:10161000981708F47ACF85E88093BC000AC085EC5F
:101620008093BC001092EB0204C010927E020E94D4
:10163000ED09FF91EF91BF91AF919F918F917F91B4
:101640006F915F914F913F912F910F900FBE0F902F
:101650001F9018951F920F920FB60F9211242F937F
:101660003F934F935F936F937F938F939F93AF932A
:10167000BF93EF93FF938091ED0287FF05C0109217
:101680008500109284001BC02091ED02022E000CF8
:10169000330B8091EC0290E02817390784F4809195
:1016A000ED02082E000C990BFC01EE0FFF1F8E0FB0
:1016B0009F1FFC01E251FD4F808186FD15C0809186
:1016C000ED028F5F8093ED022091ED02022E000C5F
:1016D000330B8091EC0290E028173907C4F4809115
:1016E000ED028C3064F113C08091ED02082E000CE5
:1016F000990BFC01EE0FFF1F8E0F9F1FFC01E251A3
:10170000FD4F808160E08F730E94E703D8CF809106
:10171000840090918500049680349C4918F480E4FC
:101720009CE905C080918400909185000496909377
:101730008900809388008FEF8093ED023BC0209159
:101740008400309185008091ED02082E000C990BE9
:10175000FC01EE0FFF1F8E0F9F1FFC01E251FD4F9A
:1017600081819281820F931F9093890080938800DA
:101770008091ED02082E000C990BFC01EE0FFF1F6B
:101780008E0F9F1FFC01E251FD4F808186FF12C02A
:101790008091ED02082E000C990BFC01EE0FFF1F4B
:1017A0008E0F9F1FFC01E251FD4F808161E08F731E
:1017B0000E94E703FF91EF91BF91AF919F918F91AD
:1017C0007F916F915F914F913F912F910F900FBE3D
:1017D0000F901F901895FC019091EC029C30A0F4A2
:1017E00081E0890F8093EC029083892F90E0FC01C7
:1017F000EE0FFF1F8E0F9F1FFC01E251FD4F88EB84
:101800009BE09283818308958FEF80830895DF9218
:10181000EF92FF920F931F93CF93DF93EC01D62E9D
:101820007A01890188818C3008F06AC061E08D2DD1
:101830000E94AB038881E82FF0E09F01220F331F45
:10184000E20FF31FE251FD4F9D2D9F732081207CFD
:10185000D22ED92AD08260E272E0AB014E195F0924
:1018600057FF02C04D5F5F4F55954795559547957A
:10187000498340E659E09A01201B310B37FF02C033
:101880002D5F3F4F35952795359527952A832CE079
:10189000622F0E94DA0D289FB001112440E050E031
:1018A0009A01260F371FF901EE0FFF1F2E0F3F1F62
:1018B000F901E251FD4F908196FD16C04F5F5F4FD9
:1018C0004C30510569F781110FC01092800082E001
:1018D000809381001092850010928400B19A8091CB
:1018E0006F00826080936F00E881F0E0CF01880F85
:1018F000991FE80FF91FE251FD4F808180648083BA
:101900008881DF91CF911F910F91FF90EF90DF9031
:10191000089520E639E040E252E00C94070CFC0107
:1019200090819C3080F5818128E830E0281B3109C6
:1019300087FD3395220F331F220F331F6217730762
:101940007CF0828128E532E0281B310987FD339540
:10195000220F331F220F331F621773070CF49B01F2
:101960004FB7F894892F90E0FC01EE0FFF1F8E0F08
:101970009F1FFC01E251FD4F22503109220F331FFE
:10198000328321834FBF0895AF92BF92CF92DF92EF
:10199000EF92FF920F931F93CF93DF93EC0160328E
:1019A00082E078070CF03FC077FD06C0653B71050B
:1019B0002CF064EB70E002C060E070E0898128E800
:1019C00030E05901A81AB10887FDB394AA0CBB1CDA
:1019D000AA0CBB1C0B2C000CCC08DD08072E000C3D
:1019E000880B990B2A8108E512E0021B110927FDDB
:1019F0001395000F111F000F111F012E000C220B59
:101A0000330B3F932F931F930F9314EBE12EF12C85
:101A100000E010E020E030E0A9010E94890D0F9065
:101A20000F900F900F90CE01DF91CF911F910F91EA
:101A3000FF90EF90DF90CF90BF90AF900C948F0C01
:101A4000FC0180818F3FB9F090E0FC01EE0FFF1F99
:101A50008E0F9F1FFC01E251FD4F8181928133E087
:101A6000880F991F3A95E1F744E0969587954A9536
:101A7000E1F70296089580E090E00895AF92BF925A
:101A8000CF92DF92EF92FF920F931F93CF93DF934A
:101A9000EC010E94200D2A8148E552E07A01E21A09
:101AA000F10827FDF394EE0CFF1CEE0CFF1C0F2C2D
:101AB000000C000B110B498128E830E0241B310990
:101AC00047FD3395220F331F220F331F032E000CC7
:101AD000440B550B0196BC01990F880B990B1F9273
:101AE0001F921F92E4EBEF93A12CB12C65010E9491
:101AF000890D0F900F900F900F90CB01DF91CF9138
:101B00001F910F91FF90EF90DF90CF90BF90AF901B
:101B100008954F925F926F927F92AF92BF92CF9251
:101B2000DF92EF92FF920F931F93CF93DF93CDB786
:101B3000DEB729013A019B01AC0124193509460998
:101B4000570989899A89AB89BC89BC01CD016A1979
:101B50007B098C099D090E94CA0DA80197012419CF
:101B60003509460957090E94080ECA01B9016A0DD4
:101B70007B1D8C1D9D1DDF91CF911F910F91FF90BB
:101B8000EF90DF90CF90BF90AF907F906F905F907D
:101B90004F900895DB018F939F930E94270EBF9172
:101BA000AF91A29F800D911DA39F900DB29F900DAC
:101BB00011240895991B79E004C0991F961708F025
:101BC000961B881F7A95C9F780950895A1E21A2E71
:101BD000AA1BBB1BFD010DC0AA1FBB1FEE1FFF1FD1
:101BE000A217B307E407F50720F0A21BB30BE40B21
:101BF000F50B661F771F881F991F1A9469F7609568
:101C00007095809590959B01AC01BD01CF01089521
:101C1000052E97FB1EF400940E941F0E57FD07D05F
:101C20000E94E60D07FC03D04EF40C941F0E509555
:101C30004095309521953F4F4F4F5F4F08959095B8
:101C40008095709561957F4F8F4F9F4F08950E94AB
:101C5000380EA59F900DB49F900DA49F800D911DEF
:101C600011240895EE0FFF1F0590F491E02D0994C3
:101C7000A29FB001B39FC001A39F700D811D1124CD
:101C8000911DB29F700D811D1124911D0895CF9358
:101C9000DF938230910510F482E090E0E09114032C
:101CA000F091150320E030E0C0E0D0E0309711F172
:101CB0004081518148175907C0F04817590761F40E
:101CC00082819381209719F09B838A832BC0909304
:101CD00015038093140326C02115310519F042170E
:101CE000530718F49A01BE01DF01EF010280F3816E
:101CF000E02DDCCF2115310509F1281B390B2430EB
:101D0000310590F412968D919C9113976115710590
:101D100021F0FB019383828304C090931503809389
:101D20001403FD01329644C0FD01E20FF31F8193BD
:101D30009193225031092D933C933AC02091120384
:101D400030911303232B41F42091020130910301C0
:101D5000309313032093120320910001309101016D
:101D60002115310541F42DB73EB740910401509142
:101D70000501241B350BE0911203F0911303E217C8
:101D8000F307A0F42E1B3F0B2817390778F0AC019E
:101D90004E5F5F4F2417350748F04E0F5F1F50937B
:101DA0001303409312038193919302C0E0E0F0E0AB
:101DB000CF01DF91CF9108950F931F93CF93DF93BE
:101DC000009709F48CC0FC013297138212820091B3
:101DD0001403109115030115110581F4208131813F
:101DE000820F931F20911203309113032817390794
:101DF00079F5F0931303E093120371C0D80140E02A
:101E000050E0AE17BF0750F412962D913C911397F6
:101E1000AD012115310509F1D901F3CF9D01DA0199
:101E20003383228360817181860F971F8217930706
:101E300069F4EC0128813981260F371F2E5F3F4F4F
:101E4000318320838A819B8193838283452B29F46C
:101E5000F0931503E093140342C01396FC93EE93A2
:101E60001297ED01499159919E01240F351FE217F8
:101E7000F30771F480819181840F951F029611966A
:101E80009C938E938281938113969C938E93129749
:101E9000E0E0F0E0D80112968D919C9113970097A5
:101EA00019F0F8018C01F6CF8D919C9198012E5F6D
:101EB0003F4F820F931F2091120330911303281775
:101EC000390769F4309729F410921503109214031E
:101ED00002C0138212821093130300931203DF9146
:101EE000CF911F910F910895A0E0B0E0EAE7FFE0E5
:101EF0000C94B110EC01009721F4CB010E94470E25
:101F0000B8C0FC01E60FF71F9C0122503109E2170F
:101F1000F30708F4ACC0D9010D911C911197061775
:101F20001707B0F00530110508F49FC0C8010497E9
:101F30008617970708F499C002501109061B170B62
:101F4000019311936D937C93CF010E94DC0E8DC0A1
:101F50005B01A01AB10A4C01800E911EA0911403DE
:101F6000B091150340E050E0E12CF12C109709F4FA
:101F70004AC0A815B905D1F56D907C901197630101
:101F800082E0C80ED11CCA14DB0480F1A3014A19F7
:101F90005B096A0182E0C80ED11C1296BC901297B0
:101FA0001396AC91B5E0CB16D10440F0B282A38376
:101FB00051834083D9016D937C930AC00E5F1F4FFC
:101FC000C301800F911FF90191838083EB2DFA2FBC
:101FD000E114F10431F0D7011396FC93EE931297BC
:101FE00044C0F0931503E09314033FC08D919C917E
:101FF00011974817590708F4AC017D0112960D900E
:10200000BC91A02DB3CF809112039091130388153A
:102010009905E1F446175707C8F4809100019091A3
:102020000101009741F48DB79EB740910401509192
:102030000501841B950BE817F907C8F4F093130307
:10204000E0931203F901718360830FC0CB010E94FA
:10205000470E7C01009759F0A801BE010E9465104F
:10206000CE010E94DC0EC70104C0CE0102C080E098
:1020700090E0CDB7DEB7EEE00C94CD101F93FC01DD
:1020800099278827BC01E89411911032E9F319309F
:1020900010F01E30C8F31B3251F01D3249F4689421
:1020A00006C00E949810610F711D811D911D119134
:1020B00010531A30B0F33EF4909580957095619569
:1020C0007F4F8F4F9F4F1F910895FB01DC0102C08E
:1020D00001900D9241505040D8F70895FC01819134
:1020E000861721F08823D9F7992708953197CF01D2
:1020F0000895FB01DC018D91019080190110D9F345
:10210000990B0895FB01DC0101900D920020E1F78D
:102110000895FB01DC014150504048F001900D92C0
:102120000020C9F701C01D9241505040E0F70895CA
:10213000592F482F372F262F660F771F881F991F7B
:10214000660F771F881F991F620F731F841F951FCB
:10215000660F771F881F991F08952F923F924F9205
:102160005F926F927F928F929F92AF92BF92CF9227
:10217000DF92EF92FF920F931F93CF93DF93CDB730
:10218000DEB7CA1BDB0B0FB6F894DEBF0FBECDBFA8
:1021900009942A88398848885F846E847D848C8479
:1021A0009B84AA84B984C884DF80EE80FD800C8182
:1021B0001B81AA81B981CE0FD11D0FB6F894DEBF65
:1021C0000FBECDBFED01089510E0C4E6D0E004C01D
:1021D000FE010E94320E2196C536D107C9F7F89448
:0221E000FFCF2F
:1021E2000000160320000B000A00060005006D6FB8
:1021F2007665003100300070616E0074696C7400A5
:1022020049205265636965766564200053656E6492
:10221200696E6720636861722000000000002E076B
:102222001706D7060307E7062307000000003E094A
:0A2232000E09B208BA08CE08DD0854
:00000001FF
