:100000000C9465000C948D000C948D000C948D0064
:100010000C948D000C948D000C948D000C948D002C
:100020000C948D000C948D000C948D000C949B0B03
:100030000C948D000C948D000C948D000C948D000C
:100040000C94F3020C948D000C94D3070C941608B6
:100050000C948D000C948D000C948D000C948D00EC
:100060000C946E0A0C948D00000000070002010041
:100070000003040600000000000000000102040864
:100080001020408001020408102001020408102002
:10009000040404040404040402020202020203032E
:1000A00003030303000000002300260029000000D2
:1000B0000000250028002B0000000000240027007D
:1000C0002A009002D208150AAC0211241FBECFEFFD
:1000D000D8E0DEBFCDBF11E0A0E0B1E0E0E4F3E2A4
:1000E00002C005900D92A036B107D9F723E0A0E633
:1000F000B1E001C01D92AC31B207E1F710E0C8ECED
:10010000D0E004C02297FE010E94A90EC23CD10794
:10011000C9F70E9434070C9493110C940000DC0181
:10012000ED91FC910190F081E02D0994EF92FF9206
:100130000F931F93CF93DF93CDB7DEB7EDB6FEB627
:1001400040917201509173014F5F5F4F80916C013C
:1001500090916D010196841795070CF040C08DB702
:100160009EB7841B950B0FB6F8949EBF0FBE8DBF34
:100170000DB71EB70F5F1F4F20E030E0B8018EE6CD
:1001800091E00E94DC0562E171E085E891E00E9467
:10019000F306E0916C01F0916D01E00FF11F6081B9
:1001A00085E891E00E942207E0916C01F0916D01D9
:1001B000E00FF11F608170E08FE292E00E948F00FB
:1001C00080916C0190916D01019690936D018093E7
:1001D0006C010FB6F894FEBE0FBEEDBE0AC06AE019
:1001E00070E08FE292E00E948F0010926D011092F9
:1001F0006C010FB6F894FEBE0FBEEDBEDF91CF913D
:100200001F910F91FF90EF90089561E087E00E94A9
:10021000230460E27EE480E090E00E94600361E0FD
:1002200088E00E94230460E087E00C942304CF93CD
:10023000DF93EC0189E691E00E94AC0D8B359105CE
:100240001CF060E271E008C08A35910519F062E2A5
:1002500071E002C064E271E0CE010E94F004CE01C0
:10026000DF91CF910895EF92FF920F931F93CF9359
:10027000DF93CDB7DEB72E970FB6F894DEBF0FBE73
:10028000CDBF8C016CE20E9420067C019C0140E005
:1002900050E0B801CE0108960E942406A7014F5FE6
:1002A0005F4FB801CE0101960E946906CE0101960A
:1002B0000E9475068B01CE0101960E94820466E2BF
:1002C00071E0CE0108960E94AC05882361F101150A
:1002D000110549F46DE270E089E691E00E942A0D73
:1002E0006DE270E017C00130110549F467E870E075
:1002F00089E691E00E942A0D67E870E00BC00F3F8D
:100300001F4F61F06AE570E089E691E00E942A0DD6
:100310006AE570E086E691E00E942A0DCE01019622
:100320000E9417011DC06BE271E0CE0108960E9489
:10033000AC058823B9F101151105F1F483E691E0CC
:100340000E94AC0D8C010B5F1F4FB80183E691E05A
:100350000E942A0D4AE0B801CE0101960E94400594
:10036000BE016F5F7F4F8EE691E00E940705CE01D0
:1003700001960E94820447C00130110541F483E6D2
:1003800091E00E94AC0D8C0105501109DECF0F3FAA
:100390001F4F19F483E691E02BC064EB70E083E615
:1003A00091E02FC06FE271E0CE0108960E94AC058B
:1003B000882349F10115110541F480E691E00E947E
:1003C000AC0D8C010B5F1F4F0AC00130110559F4B1
:1003D00080E691E00E94AC0D8C0105501109B80136
:1003E00080E691E0B5CF0F3F1F4F39F480E691E0F2
:1003F0000E94AC0D4AE0BC01AFCF67E870E080E638
:1004000091E00E942A0DCE0108960E9482042E9649
:100410000FB6F894DEBF0FBECDBFDF91CF911F9115
:100420000F91FF90EF90089564E670E080E090E017
:100430000E9460038CE00E945904892B11F00C94F7
:100440000501089580EA8093B80040E855E260E035
:1004500070E085E891E00E94510860E58FE292E04B
:100460000E94F80964EB72E08FE292E00E940B0AAE
:1004700066E970E08FE292E00E94100A609110013C
:100480007091110189E691E00E94F10C60910E01DA
:1004900070910F0186E691E00E94F10C60910C01D1
:1004A00070910D0183E691E00E94F10C60910A01C8
:1004B00070910B0180E691E00E94F10C6AE570E01A
:1004C00089E691E00E942A0D6AE570E086E691E0F7
:1004D0000E942A0D64EB70E083E691E00E942A0DF1
:1004E00067E870E080E691E00E942A0D61E087E015
:1004F0000E94EA0360E087E00E94230461E088E054
:100500000E94EA0360E087E00E94230460E08CE040
:100510000E94EA0364EF71E080E090E00C946003D5
:100520006FE371E085E791E00E94F0046FE371E012
:100530008EE691E00E94F00489E691E00E94570C5B
:1005400086E691E00E94570C83E691E00E94570CEA
:1005500080E691E00C94570C8EE691E00E948204B4
:1005600085E791E00C948204CF93DF93CDB7DEB79B
:1005700027970FB6F894DEBF0FBECDBF8FE292E093
:100580000E9430098A3031F0682F85E791E00E949F
:10059000990520C064E371E085E891E00E94F306CC
:1005A00065E771E085E891E00E94100765E771E07A
:1005B000CE0101960E941E05CE0101960E943301D4
:1005C000CE0101960E9482046FE371E085E791E01D
:1005D0000E94280527960FB6F894DEBF0FBECDBF48
:1005E000DF91CF9108951F920F920FB60F921124B1
:1005F0002F933F938F939F93AF93BF9380917D01F0
:1006000090917E01A0917F01B091800130917C0199
:1006100023E0230F2D3720F40196A11DB11D05C045
:1006200026E8230F0296A11DB11D20937C01809323
:100630007D0190937E01A0937F01B0938001809112
:10064000810190918201A0918301B0918401019672
:10065000A11DB11D8093810190938201A09383011C
:10066000B0938401BF91AF919F918F913F912F9152
:100670000F900FBE0F901F9018953FB7F894809180
:10068000810190918201A0918301B091840126B5EE
:10069000A89B05C02F3F19F00196A11DB11D3FBFBA
:1006A0006627782F892F9A2F620F711D811D911D4A
:1006B00042E0660F771F881F991F4A95D1F708956A
:1006C000CF92DF92EF92FF92CF93DF936B017C0189
:1006D0000E943D03EB01C114D104E104F10479F05F
:1006E0000E943D036C1B7D0B683E7340A0F381E0CC
:1006F000C81AD108E108F108C851DC4FECCFDF91EE
:10070000CF91FF90EF90DF90CF900895789484B5CB
:10071000826084BD84B5816084BD85B5826085BDFD
:1007200085B5816085BDEEE6F0E0808181608083E3
:10073000E1E8F0E0108280818260808380818160C6
:100740008083E0E8F0E0808181608083E1EBF0E08D
:10075000808184608083E0EBF0E080818160808331
:10076000EAE7F0E08081846080838081826080831A
:100770008081816080838081806880831092C10045
:100780000895833081F028F4813099F08230A1F00F
:1007900008958630A9F08730B9F08430D1F4809183
:1007A00080008F7D03C0809180008F7780938000D0
:1007B000089584B58F7702C084B58F7D84BD089578
:1007C0008091B0008F7703C08091B0008F7D8093BF
:1007D000B0000895CF93DF9390E0FC01E458FF4F01
:1007E0002491FC01E057FF4F8491882349F190E068
:1007F000880F991FFC01E854FF4FA591B4918255D1
:100800009F4FFC01C591D4919FB7611108C0F89426
:100810008C91209582238C93888182230AC0623038
:1008200051F4F8948C91322F309583238C938881E6
:10083000822B888304C0F8948C91822B8C939FBF69
:10084000DF91CF9108950F931F93CF93DF931F9262
:10085000CDB7DEB7282F30E0F901E859FF4F84917A
:10086000F901E458FF4F1491F901E057FF4F04914B
:100870000023C9F0882321F069830E94C1036981A4
:10088000E02FF0E0EE0FFF1FE255FF4FA591B4916E
:100890009FB7F8948C91611103C01095812301C01A
:1008A000812B8C939FBF0F90DF91CF911F910F9160
:1008B0000895CF93DF93282F30E0F901E859FF4FD7
:1008C0008491F901E458FF4FD491F901E057FF4FAB
:1008D000C491CC2391F081110E94C103EC2FF0E070
:1008E000EE0FFF1FEC55FF4FA591B4912C912D23D6
:1008F00081E090E021F480E002C080E090E0DF91B0
:10090000CF910895FC01808191810C94540FCF9375
:10091000DF93EC0188819981009711F00E94540FB8
:10092000198218821D821C821B821A82DF91CF914C
:1009300008950F931F93CF93DF93EC018B016F5FAB
:100940007F4F888199810E94E30F009731F099834E
:1009500088831B830A8381E001C080E0DF91CF910F
:100960001F910F910895CF93DF93EC0188819981B6
:10097000892B29F08A819B818617970760F4CE0125
:100980000E949904882341F08C819D81892B19F460
:10099000E881F981108281E0DF91CF910895EF9293
:1009A000FF920F931F93CF93DF93EC017B018A019A
:1009B000BA010E94B304811104C0CE010E948704D1
:1009C00007C01D830C83B701888199810E94F110B3
:1009D000CE01DF91CF911F910F91FF90EF9008957D
:1009E000FC011182108213821282158214821682F7
:1009F0006115710559F0FB0101900020E9F7AF0185
:100A000041505109461B570B0C94CF040895CF93C6
:100A1000DF93EC01FB018617970761F0608171811C
:100A20006115710529F0448155810E94CF0402C0EF
:100A30000E948704CE01DF91CF910895FC011182BD
:100A40001082138212821582148216820C9407057A
:100A5000CF93DF93EC016115710561F0FB0101900B
:100A60000020E9F7AF0141505109461B570B0E9486
:100A7000CF0402C00E948704CE01DF91CF91089578
:100A80000F931F93CF93DF93CDB7DEB762970FB667
:100A9000F894DEBF0FBECDBF8C01CB01F8011182EF
:100AA00010821382128215821482168250E0BE01D7
:100AB0006F5F7F4F0E940711BE016F5F7F4FC801BC
:100AC0000E94280562960FB6F894DEBF0FBECDBF18
:100AD000DF91CF911F910F910895EF92FF920F93A5
:100AE0001F93CF93DF93EC017B010C811D81611576
:100AF000710511F480E016C04115510591F0040F05
:100B0000151FB8010E94B3048823A1F328813981FD
:100B10008C819D81B701820F931F0E94F1101D836C
:100B20000C8381E0DF91CF911F910F91FF90EF90A7
:100B30000895CF93DF9300D0CDB7DEB769831A82D3
:100B400041E050E0BE016F5F7F4F0E946D050F9046
:100B50000F90DF91CF910895FC0124813581232BE3
:100B600031F421E061157105A1F0FB0108C0FC0121
:100B7000808191816115710531F421E0FC01808152
:100B8000882339F005C00E94E81021E0892B09F084
:100B900020E0822F0895FC012481358162177307BC
:100BA00048F480819181009729F0FC01E60FF71F3E
:100BB0008081089580E008950F931F93CF93DF9372
:100BC000EB0141155105E9F02097D9F0FC01648152
:100BD000758126173707A0F4621B730B8A01015039
:100BE00011096017710708F48B01FC0160817181A4
:100BF000620F731FA801CE010E94F810C00FD11F11
:100C00001882DF91CF911F910F910895CF93DF93B9
:100C1000FC01848195814817590768F4C081D1810E
:100C200070E0CE01840F951F0E94DD10009719F02F
:100C30008C1B9D0B02C08FEF9FEFDF91CF9108952A
:100C400040E050E00C940606BF92CF92DF92EF9204
:100C5000FF920F931F93CF93DF936C017B01EA0107
:100C600089012417350720F48D2FE901042F182F4F
:100C70006FE371E0C6010E94F004D70114968D91D4
:100C80009C9115978C179D07C8F08017910708F461
:100C90008C01D701ED91FC911197E00FF11FB0800D
:100CA00010826D917C916C0F7D1FC6010E942805FA
:100CB000D701ED91FC91E00FF11FB082C601DF91E9
:100CC000CF911F910F91FF90EF90DF90CF90BF9049
:100CD0000895CF93DF93EC01FB01248135810E94BD
:100CE0002406CE01DF91CF910895FC01808191818E
:100CF000009711F00C94AD1060E070E0CB01089506
:100D0000CF92DF92EF92FF920F931F93CF93DF93D7
:100D10006C017A01EB01E60EF71E00E010E0CE1543
:100D2000DF0561F06991D601ED91FC910190F081B0
:100D3000E02DC6010995080F191FF1CFC801DF91F9
:100D4000CF911F910F91FF90EF90DF90CF9008957A
:100D50006115710581F0DB010D900020E9F7AD010F
:100D600041505109461B570BDC01ED91FC9102806B
:100D7000F381E02D099480E090E00895AF92BF9256
:100D8000CF92DF92EF92FF920F931F93CF93DF9357
:100D90007C016B01C0E0D0E000E010E0D6011496C9
:100DA0008D919C911597C817D90788F4D701ED91BB
:100DB000FC91A080B180BE01C6010E94CB05682FC6
:100DC000C701F5010995080F191F2196E7CFC80142
:100DD000DF91CF911F910F91FF90EF90DF90CF9017
:100DE000BF90AF9008950C94A806DC01ED91FC91A2
:100DF0000190F081E02D09940F931F93CF93DF931F
:100E0000EC016DE00E94F5068C016AE0CE010E94C3
:100E1000F506800F911FDF91CF911F910F910895DB
:100E20000F931F93CF93DF93EC010E94BE068C01BA
:100E3000CE010E94FC06800F911FDF91CF911F9180
:100E40000F9108950F931F93CF93DF93EC010E94AE
:100E5000F5068C01CE010E94FC06800F911FDF91E8
:100E6000CF911F910F9108950E9486030E94220244
:100E7000CDE0D8E00E9414022097E1F30E940D0813
:100E8000F9CFFC0124853585F901E05CFF4F8081B5
:100E90009181329620813181821B930B8F73992728
:100EA0000895FC0184859585FC01E05CFF4F40813D
:100EB00051813296208131814217530741F00190D0
:100EC000F081E02DE80FF91F808190E008958FEF09
:100ED0009FEF0895FC0184859585FC01E05CFF4F40
:100EE000408151813296208131814217530779F038
:100EF000A081B181A80FB91F8C91208131812F5F12
:100F00003F4F2F7333273183208390E008958FEF75
:100F10009FEF0895FC0181A1882329F0A489B58958
:100F20008C9186FFFBCF11A20895CF93DF93FC0134
:100F300026853785D901A05CBF4F8D919C91119773
:100F400001968F739927E901CE5BDF4F4881598164
:100F500084179507D9F30D90BC91A02DA20FB31F54
:100F60006C93A685B785A05CBF4F11969C938E931A
:100F7000A689B7892C9181E090E0078C02C0880F88
:100F8000991F0A94E2F7282B2C9381E081A304880F
:100F9000F589E02D80818064808381E090E0DF919D
:100FA000CF91089508951F920F920FB60F921124BA
:100FB0002F933F934F938F939F93EF93FF93809142
:100FC000C00082FD1CC04091C60080912B02909110
:100FD0002C0201968F73992720912D0230912E02B9
:100FE0008217930771F0E0912B02F0912C02E551EA
:100FF000FE4F408390932C0280932B0202C080917D
:10100000C600FF91EF919F918F914F913F912F914A
:101010000F900FBE0F901F90189585E891E00E94E9
:101020004107892B11F00C94D20708951F920F925B
:101030000FB60F9211242F933F938F939F93EF93AB
:10104000FF932091E7013091E8018091E9019091AF
:10105000EA012817390731F48091C1008F7D809310
:10106000C10014C0E091E901F091EA01E955FE4F99
:1010700020818091E9019091EA0101968F7399276F
:101080009093EA018093E9012093C600FF91EF91CC
:101090009F918F913F912F910F900FBE0F901F90B6
:1010A0001895CF92DF92EF92FF92CF93DF93EC01EE
:1010B0006A017B01411581EE580761057105F9F060
:1010C000EC89FD8981E090E008A002C0880F991F9B
:1010D0000A94E2F7808360E079E08DE390E0A70175
:1010E00096010E945B0E2150310941095109569524
:1010F000479537952795211580E1380798F0EC89B9
:10110000FD89108260E874E88EE190E0A701960105
:101110000E945B0E215031094109510956954795AE
:1011200037952795E889F9893083EA89FB892083F7
:1011300019A2EE89FF89408181E090E09C010C8C2E
:1011400002C0220F331F0A94E2F7422B4083EE893C
:10115000FF8940819C010D8C02C0220F331F0A942D
:10116000E2F7422B4083EE89FF8940819C010E8C7F
:1011700002C0220F331F0A94E2F7422B4083EE890C
:10118000FF8920810F8C02C0880F991F0A94E2F713
:10119000809582238083DF91CF91FF90EF90DF9045
:1011A000CF900895109288011092870188EE93E005
:1011B000A0E0B0E08093890190938A01A0938B0115
:1011C000B0938C0184E491E0909386018093850133
:1011D0008BEE91E0909392018093910187EA91E0E8
:1011E000909394018093930185EC90E09093960105
:1011F0008093950184EC90E09093980180939701FF
:1012000080EC90E090939A018093990181EC90E0BA
:1012100090939C0180939B0182EC90E090939E01BF
:1012200080939D0186EC90E09093A00180939F01B4
:1012300084E08093A10183E08093A20187E0809302
:10124000A30185E08093A40181E08093A501089526
:101250008091620290E020916302821B91090895BF
:101260002091630280916202281750F4E22FF0E08F
:10127000EC59FD4F808190E02F5F20936302089529
:101280008FEF9FEF0895E091630280916202E8176B
:1012900030F4F0E0EC59FD4F808190E008958FEF3D
:1012A0009FEF08950895E0913B02F0913C02309742
:1012B000E1F030916302209162023217B0F040E019
:1012C000242F30E02617370754F4DC01A20FB31F98
:1012D0005C91D901AC59BD4F5C934F5FF1CF109237
:1012E000630260936202CB0109940895E0913D028C
:1012F000F0913E02309729F0109241021092400284
:1013000009940895CF92DF92EF92FF920F931F936B
:10131000CF93DF937C01CB018A0120913F022223EE
:1013200089F0EB016B01C40ED51ECC15DD0569F00B
:101330006991D701ED91FC910190F081E02DC701F9
:101340000995F3CF642F0E943B0AC801DF91CF912A
:101350001F910F91FF90EF90DF90CF900895CF9362
:10136000DF931F92CDB7DEB7698320913F0222231E
:10137000D1F020914002203240F021E030E0FC0129
:101380003383228380E090E015C080914102E82FF2
:10139000F0E0EE5BFD4F998190838F5F8093410277
:1013A0008093400205C061E0CE0101960E943B0A95
:1013B00081E090E00F90DF91CF910895FC011382BE
:1013C000128248EE53E060E070E044835583668308
:1013D000778384E591E0918380830895109263027E
:1013E0001092620210924102109240020C94190A6B
:1013F000CF93DF93EC01862F0E94370A86E799E0AE
:101400000E94590A83E599E00E94540ACE01DF91B7
:10141000CF910C94EE0970933C0260933B020895C7
:1014200070933E0260933D0208958FE292E00C9427
:10143000DE091092F10281E08093EF021092EE0239
:1014400061E082E10E94230461E083E10E942304C1
:10145000E9EBF0E080818E7F808380818D7F8083C7
:1014600088E48093B80085E48093BC000895880FD9
:101470008093BA000895613298F42091F1022430EB
:1014800089F46093A602FC0188EA92E0DC012A2F2D
:10149000281B261718F421912D93F9CF80E0089589
:1014A00081E0089582E008959093EB028093EA0230
:1014B00008959093ED028093EC02089585ED80935A
:1014C000BC008091BC0084FDFCCF1092F102089515
:1014D00085EC8093BC001092F10208951F920F9248
:1014E0000FB60F9211242F933F934F935F936F93F7
:1014F0007F938F939F93AF93BF93EF93FF938091CD
:10150000B900887F803609F49CC068F5883209F4F8
:101510005BC090F4803109F454C038F4882309F496
:10152000F5C0883009F44DC0F5C0883109F44CC0CD
:10153000803209F45DC0EEC0803409F468C048F41C
:10154000803309F455C0883309F0E4C080938402E5
:10155000A8C0803509F44FC0883509F45DC08834CF
:1015600009F0D8C0D5C0883909F4C6C0A8F48837B6
:1015700009F467C038F4883609F463C0803709F489
:1015800060C0C8C0883809F4B7C0803909F45FC0AA
:10159000803809F0BFC05BC0803B09F485C038F4D7
:1015A000803A09F466C0883A09F47EC0B3C0803C32
:1015B00009F4A6C0883C09F4A3C0883B09F489C09B
:1015C000A9C08091F00210C09091C9028091C80218
:1015D000981770F5E091C90281E08E0F8093C902DF
:1015E000F0E0E653FD4F80818093BB0085EC85C021
:1015F000809384028DC0E091C90281E08E0F8093B8
:10160000C9028091BB00F0E0E653FD4F80839091CA
:10161000C9028091C8026DC0E091C90281E08E0FBD
:101620008093C9028091BB00F0E0E653FD4F8083B8
:101630008091EF0281116CC081E08093EE0284EA18
:1016400060C083E08093F10210928502CFCF809139
:101650008502803208F050C0E091850281E08E0F53
:10166000809385028091BB00F0E0EA57FD4F8083B4
:10167000BDCF80918502803230F4E0918502F0E0A8
:10168000EA57FD4F10820E945E0A6091850270E069
:10169000E091EA02F091EB0286E892E0099510925F
:1016A00085020E94680A36C084E08093F10210929D
:1016B000A7021092A602E091EC02F091ED020995CA
:1016C0008091A602811105C081E08093A60210924C
:1016D000A802E091A70281E08E0F8093A702F0E0BC
:1016E000E855FD4F80818093BB009091A7028091C7
:1016F000A602981708F47ACF85E88093BC000AC048
:1017000085EC8093BC001092F10204C01092840218
:101710000E945E0AFF91EF91BF91AF919F918F91CF
:101720007F916F915F914F913F912F910F900FBEDD
:101730000F901F9018951F920F920FB60F921124C1
:101740002F933F934F935F936F937F938F939F93C9
:10175000AF93BF93EF93FF938091F30287FF05C090
:1017600010928500109284001AC02091F302332752
:1017700027FD30958091F20290E0281739077CF41C
:101780008091F302992787FD9095FC01EE0FFF1FD2
:10179000E80FF91FEC50FD4F808186FD15C0809148
:1017A000F3028F5F8093F3022091F302332727FD2A
:1017B00030958091F20290E028173907BCF48091AF
:1017C000F3028C305CF112C08091F302992787FDFF
:1017D0009095FC01EE0FFF1FE80FF91FEC50FD4F35
:1017E000808160E08F730E942304D9CF80918400B0
:1017F00090918500049680349C4918F480E49CE91B
:1018000005C0809184009091850004969093890092
:10181000809388008FEF8093F30238C0809184001A
:10182000909185002091F302332727FD3095F9012F
:10183000EE0FFF1FE20FF31FEC50FD4F21813281AD
:10184000820F931F90938900809388008091F30208
:10185000992787FD9095FC01EE0FFF1FE80FF91FF8
:10186000EC50FD4F808186FF11C08091F3029927D3
:1018700087FD9095FC01EE0FFF1FE80FF91FEC505C
:10188000FD4F808161E08F730E942304FF91EF91EF
:10189000BF91AF919F918F917F916F915F914F9188
:1018A0003F912F910F900FBE0F901F901895209190
:1018B000F2022C30A0F431E0320F3093F202FC013E
:1018C0002083822F90E0FC01EE0FFF1FE80FF91F2D
:1018D000EC50FD4F88EB9BE09283818308952FEFBE
:1018E000FC0120830895DF92EF92FF920F931F93E4
:1018F000CF93DF93EC01D62E7A01890188818C3059
:1019000008F066C061E08D2D0E94EA038881A82F4F
:10191000B0E0FD01EE0FFF1FEA0FFB1FEC50FD4F83
:101920002D2D2F739081907C922B908360E272E03A
:101930006E197F0977FF02C06D5F7F4F75956795C0
:1019400075956795698340E659E0401B510B57FF39
:1019500002C04D5F5F4F55954795559547954A8312
:101960002CE0622F0E944F0E289FB001112420E02E
:1019700030E0A901460F571FFA01EE0FFF1FE40FD9
:10198000F51FEC50FD4F908196FD16C02F5F3F4F25
:101990002C30310571F781110FC01092800082E068
:1019A000809381001092850010928400B19A8091FA
:1019B0006F00826080936F00888190E0FC01EE0FE1
:1019C000FF1FE80FF91FEC50FD4F8081806480837A
:1019D0008881DF91CF911F910F91FF90EF90DF9061
:1019E000089520E639E040E252E00C94730CFC01CB
:1019F00080818C3070F5918128E830E0291B310915
:101A000097FD3395220F331F220F331F6217730781
:101A10007CF0928128E532E0291B310997FD33954E
:101A2000220F331F220F331F621773070CF49B0121
:101A30004FB7F89490E0FC01EE0FFF1FE80FF91F7D
:101A4000EC50FD4F22503109220F331F3283218386
:101A50004FBF08954F925F926F927F92AF92BF9265
:101A6000CF92DF92EF92FF920F931F93CF93DF936A
:101A7000EC01603282E078070CF040C077FD06C0D0
:101A8000653B71052CF064EB70E002C060E070E033
:101A9000898128E830E0281B310987FD3395220F22
:101AA000331F220F331F5901CC24B7FCC094DC2C08
:101AB000882777FD8095982F2A8148E552E0421BC0
:101AC000510927FD5395440F551F440F551F2A01F7
:101AD000662457FC6094762C7F926F925F924F92AF
:101AE00014EBE12EF12C00E010E020E030E0A90141
:101AF0000E94F80D0F900F900F900F90CE01DF9184
:101B0000CF911F910F91FF90EF90DF90CF90BF90FA
:101B1000AF907F906F905F904F900C94F70CFC010A
:101B200080818F3FB1F090E0FC01EE0FFF1FE80FC6
:101B3000F91FEC50FD4F8181928143E0880F991F7E
:101B40004A95E1F754E0969587955A95E1F7029604
:101B5000089580E090E00895AF92BF92CF92DF9217
:101B6000EF92FF920F931F93CF93DF93EC010E94AC
:101B70008F0D2A8148E552E0421B510927FD5395FC
:101B8000440F551F440F551F7A010027F7FC00959D
:101B9000102F498128E830E0241B310947FD339597
:101BA000220F331F220F331F442737FD4095542F38
:101BB0000196BC01882777FD8095982F1F921F9270
:101BC0001F92E4EBEF93A12CB12C65010E94F80D5C
:101BD0000F900F900F900F90CB01DF91CF911F913D
:101BE0000F91FF90EF90DF90CF90BF90AF9008954E
:101BF0004F925F926F927F92AF92BF92CF92DF929D
:101C0000EF92FF920F931F93CF93DF93CDB7DEB781
:101C100029013A01621B730B840B950B29893A89C0
:101C20004B895C892A193B094C095D09298B3A8B40
:101C30004B8B5C8B9B01AC0169897A898B899C8970
:101C40000E943F0EE418F50806091709A80197013C
:101C50000E947D0E2A0D3B1D4C1D5D1DCA01B90160
:101C6000DF91CF911F910F91FF90EF90DF90CF9078
:101C7000BF90AF907F906F905F904F900895DB0181
:101C80008F939F930E949C0EBF91AF91A29F800D56
:101C9000911DA39F900DB29F900D11240895991B43
:101CA00079E004C0991F961708F0961B881F7A9553
:101CB000C9F780950895A1E21A2EAA1BBB1BFD014E
:101CC0000DC0AA1FBB1FEE1FFF1FA217B307E4071B
:101CD000F50720F0A21BB30BE40BF50B661F771F73
:101CE000881F991F1A9469F7609570958095909553
:101CF0009B01AC01BD01CF010895052E97FB1EF499
:101D000000940E94940E57FD07D00E945B0E07FCC2
:101D100003D04EF40C94940E509540953095219537
:101D20003F4F4F4F5F4F0895909580957095619507
:101D30007F4F8F4F9F4F08950E94AD0EA59F900D2E
:101D4000B49F900DA49F800D911D11240895EE0F56
:101D5000FF1F0590F491E02D0994A29FB001B39F5D
:101D6000C001A39F700D811D1124911DB29F700DA4
:101D7000811D1124911D0895CF93DF938230910529
:101D800010F482E090E0E0911A03F0911B0320E050
:101D900030E0A0E0B0E0309739F140815181481740
:101DA0005907B8F04817590771F482819381109749
:101DB00029F013969C938E9312972CC090931B033B
:101DC00080931A0327C02115310531F042175307BC
:101DD00018F0A901DB0101C0EF019A01BD01DF018B
:101DE0000280F381E02DD7CF21153105F9F0281BB2
:101DF000390B2430310580F48A819B81611571058E
:101E000021F0FB019383828304C090931B03809392
:101E10001A03FE01329644C0FE01E20FF31F8193C4
:101E2000919322503109398328833AC020911803B5
:101E300030911903232B41F42091020130910301C9
:101E40003093190320931803209100013091010170
:101E50002115310541F42DB73EB740910401509151
:101E60000501241B350BE0911803F0911903E217CB
:101E7000F307A0F42E1B3F0B2817390778F0AC01AD
:101E80004E5F5F4F2417350748F04E0F5F1F50938A
:101E90001903409318038193919302C0E0E0F0E0AE
:101EA000CF01DF91CF910895CF93DF93009709F48D
:101EB00087C0FC01329713821282C0911A03D0911D
:101EC0001B03209781F420813181280F391F8091D5
:101ED0001803909119038217930779F5F09319036A
:101EE000E09318036DC0DE0120E030E0AE17BF07BD
:101EF00050F412964D915C9113979D014115510537
:101F000009F1DA01F3CFB383A28340815181840FB9
:101F1000951F8A179B0771F48D919C911197840FDF
:101F2000951F02969183808312968D919C911397B1
:101F3000938382832115310529F4F0931B03E093E9
:101F40001A033EC0D9011396FC93EE9312974D915C
:101F50005D91A40FB51FEA17FB0779F48081918189
:101F6000840F951F0296D90111969C938E938281BE
:101F7000938113969C938E931297E0E0F0E08A8110
:101F80009B81009719F0FE01EC01F9CFCE0102967A
:101F900028813981820F931F2091180330911903F2
:101FA0002817390769F4309729F410921B0310920F
:101FB0001A0302C013821282D0931903C09318032C
:101FC000DF91CF910895A0E0B0E0E9EEFFE00C943E
:101FD0006011EC01CB01209719F40E94BC0EB8C02F
:101FE000FE01E60FF71F9E0122503109E217F307A9
:101FF00008F4ACC0D9010D911C9111970617170771
:10200000B8F00530110508F49FC0A80144505109EB
:102010004617570708F498C002501109061B170B02
:10202000019311936D937C93CF010E94540F8CC048
:102030005B01A01AB10A4E01800E911EA0911A03F5
:10204000B0911B03612C712C60E070E0109709F4D3
:1020500049C0A815B905C9F5ED90FC901197670125
:1020600042E0C40ED11CCA14DB0478F147018A187F
:102070009B08640142E0C40ED11C1296BC901297DA
:102080001396AC91B5E0CB16D10440F0B282A38395
:1020900091828082D9018D939C9309C00E5F1F4F5E
:1020A0000E0D1F1DF90111830083EB2DFA2F611511
:1020B000710531F0DB011396FC93EE93129744C047
:1020C000F0931B03E0931A033FC06D917C9111972D
:1020D0006616770608F43B01BD0112960D90BC917F
:1020E000A02DB4CF6091180370911903681579057C
:1020F000E9F468167906D0F440910001509101018D
:102100004115510541F44DB75EB7609104017091DE
:102110000501461B570BE417F507C0F4F0931903AC
:10212000E0931803F901918380830EC00E94BC0ED6
:102130007C01009759F0A801BE010E94D410CE0185
:102140000E94540FC70104C0CE0102C080E090E09D
:10215000CDB7DEB7EEE00C947C111F93FC019927FC
:102160008827BC01E89411911032E9F3193010F07E
:102170001E30C8F31B3251F01D3249F4689406C07A
:102180000E941D11610F711D811D911D1191105330
:102190001A30B0F33EF490958095709561957F4F1D
:1021A0008F4F9F4F1F910895FB01DC0102C00190EA
:1021B0000D9241505040D8F70895FC018191861747
:1021C00021F08823D9F7992708953197CF010895F1
:1021D000FB01DC018D91019080190110D9F3990B5D
:1021E0000895FB01DC0101900D920020E1F70895B4
:1021F000FB01DC014150504048F001900D9200205D
:10220000C9F701C01D9241505040E0F70895453292
:10221000510520F4423010F00C941211FB01108291
:10222000CB010895BB274A3031F4992322F4BDE253
:10223000909581959F4F0C943311592F482F372F2C
:10224000262F660F771F881F991F660F771F881F1D
:10225000991F620F731F841F951F660F771F881FBA
:10226000991F0895BB27FB015527AA27880F991F9F
:10227000AA1FA41710F0A41B83955051B9F7A05DB5
:10228000AA3308F0A95DA193009779F7B111B19332
:102290001192CB010C944C11DC01FC01672F719160
:1022A0007723E1F7329704C07C916D93708362913C
:1022B000AE17BF07C8F308952F923F924F925F92D7
:1022C0006F927F928F929F92AF92BF92CF92DF9246
:1022D000EF92FF920F931F93CF93DF93CDB7DEB7AB
:1022E000CA1BDB0B0FB6F894DEBF0FBECDBF09943F
:1022F0002A88398848885F846E847D848C849B8496
:10230000AA84B984C884DF80EE80FD800C811B81A3
:10231000AA81B981CE0FD11D0FB6F894DEBF0FBED2
:10232000CDBFED01089510E0C8ECD0E004C0FE017F
:102330000E94A90E2296CA3CD107C9F7F894FFCF94
:1023400000001C032000010000000B000A00060032
:10235000050053656E64696E6720636861722000D2
:102360003100300032006D6F76650070616E007470
:10237000696C740049205265636965766564200064
:10238000000000009507800641076A0751078A0789
:1023900000000000AF0982092809300943095209E9
:00000001FF
