:100000000C9458000C9480000C9480000C94800098
:100010000C9480000C9480000C9480000C94800060
:100020000C9480000C9480000C9480000C94800050
:100030000C9480000C9480000C9480000C94800040
:100040000C94B1000C9480000C9480000C948000FF
:100050000C9480000C9480000C9480000C94800020
:100060000C94D2020C9480000000000700020100F2
:100070000003040600000000000000000102040864
:100080001020408001020408102001020408102002
:10009000040404040404040402020202020203032E
:1000A0000303030300000000250028002B00790251
:1000B00011241FBECFEFD8E0DEBFCDBF11E0A0E01E
:1000C000B1E0ECECF8E002C005900D92A631B1076A
:1000D000D9F721E0A6E1B1E001C01D92A43EB2072C
:1000E000E1F710E0C0EBD0E004C02297FE010E94CF
:1000F0006004CE3AD107C9F70E947F010C946404D2
:100100000C940000E0912101F09122010190F08116
:10011000E02D6091160181E291E0099468EE73E0B0
:1001200080E090E00C941E0180EA8093B80060E5C6
:1001300081E291E00E945C0268EA70E081E291E075
:100140000E946F0262E870E081E291E00C94740218
:1001500081E291E00E94940190931701809316012F
:1001600008951F920F920FB60F9211242F933F9371
:100170008F939F93AF93BF938091190190911A0130
:10018000A0911B01B0911C013091180123E0230FB5
:100190002D3720F40196A11DB11D05C026E8230FBF
:1001A0000296A11DB11D209318018093190190930F
:1001B0001A01A0931B01B0931C0180911D01909125
:1001C0001E01A0911F01B09120010196A11DB11D3A
:1001D00080931D0190931E01A0931F01B0932001F5
:1001E000BF91AF919F918F913F912F910F900FBE33
:1001F0000F901F9018953FB7F89480911D01909132
:100200001E01A0911F01B091200126B5A89B05C039
:100210002F3F19F00196A11DB11D3FBF6627782F12
:10022000892F9A2F620F711D811D911D42E0660F6B
:10023000771F881F991F4A95D1F70895CF92DF92B3
:10024000EF92FF92CF93DF936B017C010E94FB0042
:10025000EB01C114D104E104F10479F00E94FB0028
:100260006C1B7D0B683E7340A0F381E0C81AD10877
:10027000E108F108C851DC4FECCFDF91CF91FF903E
:10028000EF90DF90CF900895789484B5826084BD1C
:1002900084B5816084BD85B5826085BD85B581608A
:1002A00085BDEEE6F0E0808181608083E1E8F0E0EA
:1002B0001082808182608083808181608083E0E819
:1002C000F0E0808181608083E1EBF0E080818460F8
:1002D0008083E0EBF0E0808181608083EAE7F0E0FA
:1002E000808184608083808182608083808181605E
:1002F00080838081806880831092C10008950E946D
:1003000044010E949400C0E0D0E00E948E0020973B
:10031000E1F30E940000F9CF8091540190E0209118
:100320005501821B91090895209155018091540136
:10033000281750F4E22FF0E0EA5AFE4F808190E057
:100340002F5F2093550108958FEF9FEF0895E0915F
:10035000550180915401E81730F4F0E0EA5AFE4F5D
:10036000808190E008958FEF9FEF08950895E091C8
:100370002D01F0912E013097E1F03091550120913F
:1003800054013217B0F040E0242F30E02617370731
:1003900054F4DC01A20FB31F5C91D901AA5ABE4FDD
:1003A0005C934F5FF1CF1092550160935401CB01E4
:1003B00009940895E0912F01F0913001309729F0D0
:1003C000109233011092320109940895CF92DF9276
:1003D000EF92FF920F931F93CF93DF937C01CB019A
:1003E0008A0120913101222389F0EB016B01C40EB7
:1003F000D51ECC15DD0569F06991D701ED91FC9111
:100400000190F081E02DC7010995F3CF642F0E9480
:100410009F02C801DF91CF911F910F91FF90EF9044
:10042000DF90CF900895CF93DF931F92CDB7DEB7C3
:100430006983209131012223D1F0209132012032B1
:1004400040F021E030E0FC013383228380E090E043
:1004500015C080913301E82FF0E0EC5CFE4F9981EC
:1004600090838F5F809333018093320105C061E0F8
:10047000CE0101960E949F0281E090E00F90DF91F3
:10048000CF910895FC011382128248EE53E060E0A0
:1004900070E044835583668377838AE091E091839B
:1004A00080830895109255011092540110923301E7
:1004B000109232010C947D02CF93DF93EC01862FD2
:1004C0000E949B028AED91E00E94BD0287EB91E0C1
:1004D0000E94B802CE01DF91CF910C94520270932A
:1004E0002E0160932D0108957093300160932F01C8
:1004F000089581E291E00C9442021092E30181E0C0
:100500008093E1011092E00161E082E10E94280401
:1005100061E083E10E942804E9EBF0E080818E7FB6
:10052000808380818D7F808388E48093B80085E418
:100530008093BC000895880F8093BA0008956132BB
:1005400098F42091E301243089F460939801FC0130
:100550008AE991E0DC012A2F281B261718F4219143
:100560002D93F9CF80E0089581E0089582E0089509
:100570009093DD018093DC0108959093DF018093D7
:10058000DE01089585ED8093BC008091BC0084FD60
:10059000FCCF1092E301089585EC8093BC0010928B
:1005A000E30108951F920F920FB60F9211242F931B
:1005B0003F934F935F936F937F938F939F93AF93EB
:1005C000BF93EF93FF938091B900887F803609F441
:1005D0009CC068F5883209F45BC090F4803109F45E
:1005E00054C038F4882309F4F5C0883009F44DC0AC
:1005F000F5C0883109F44CC0803209F45DC0EEC00A
:10060000803409F468C048F4803309F455C0883355
:1006100009F0E4C080937601A8C0803509F44FC08A
:10062000883509F45DC0883409F0D8C0D5C0883950
:1006300009F4C6C0A8F4883709F467C038F48836CE
:1006400009F463C0803709F460C0C8C0883809F471
:10065000B7C0803909F45FC0803809F0BFC05BC003
:10066000803B09F485C038F4803A09F466C0883AC2
:1006700009F47EC0B3C0803C09F4A6C0883C09F4EC
:10068000A3C0883B09F489C0A9C08091E20110C0D1
:100690009091BB018091BA01981770F5E091BB0170
:1006A00081E08E0F8093BB01F0E0E454FE4F808127
:1006B0008093BB0085EC85C0809376018DC0E0916E
:1006C000BB0181E08E0F8093BB018091BB00F0E005
:1006D000E454FE4F80839091BB018091BA016DC0BC
:1006E000E091BB0181E08E0F8093BB018091BB0044
:1006F000F0E0E454FE4F80838091E10181116CC0F1
:1007000081E08093E00184EA60C083E08093E301AC
:1007100010927701CFCF80917701803208F050C0DE
:10072000E091770181E08E0F809377018091BB008B
:10073000F0E0E858FE4F8083BDCF80917701803292
:1007400030F4E0917701F0E0E858FE4F10820E940B
:10075000C2026091770170E0E091DC01F091DD016F
:1007600088E791E00995109277010E94CC0236C08B
:1007700084E08093E3011092990110929801E09136
:10078000DE01F091DF01099580919801811105C08A
:1007900081E08093980110929A01E091990181E0A3
:1007A0008E0F80939901F0E0E656FE4F8081809392
:1007B000BB009091990180919801981708F47ACF25
:1007C00085E88093BC000AC085EC8093BC00109241
:1007D000E30104C0109276010E94C202FF91EF91E2
:1007E000BF91AF919F918F917F916F915F914F9149
:1007F0003F912F910F900FBE0F901F90189583304F
:1008000081F028F4813099F08230A1F0089586308B
:10081000A9F08730B9F08430D1F4809180008F7DC9
:1008200003C0809180008F7780938000089584B505
:100830008F7702C084B58F7D84BD08958091B0000C
:100840008F7703C08091B0008F7D8093B0000895B2
:100850000F931F93CF93DF931F92CDB7DEB7282F4F
:1008600030E0F901E859FF4F8491F901E458FF4F56
:100870001491F901E057FF4F04910023C9F0882338
:1008800021F069830E94FF036981E02FF0E0EE0F01
:10089000FF1FEC55FF4FA591B4919FB7F8948C9131
:1008A000611103C01095812301C0812B8C939FBFE0
:1008B0000F90DF91CF911F910F910895EE0FFF1FC1
:0C08C0000590F491E02D0994F894FFCF0E
:1008CC000000E4012000000000001302E6018C018E
:0608DC009401A701B60122
:00000001FF
